12018060101C000100007374000073740018030710727577TRINIDAD CONSTRUCCIONES S.R.L.00000000001799800000000000000000000000001628800000000000171000000000000000000000000000000000000000000000000000000000000000000000000000000000000000000000000000000000001PES00010000001 6631535275180520160811
12018060106C000100034176000341760019600011111111Consumidor final              00000000019900000000000000000000000000018009100000000001891000000000000000000000000000000000000000000000000000000000000000000000000000000000000000000000000000000000005PES00010000001 6631535275180520160811
12018060106C000100034177000341770019600011111111Consumidor final              00000000008900000000000000000000000000008054300000000000845700000000000000000000000000000000000000000000000000000000000000000000000000000000000000000000000000000000005PES00010000001 6631535275180520160811
12018060106C000100034178000341780018030707691693FUNDACION FUNDOSOL            00000000006900000000000000000000000000005702500000000001197500000000000000000000000000000000000000000000000000000000000000000000000000000000000000000000000000000000009PES00010000001 6631535275180520160811
12018060106C000100034179000341790018020183162889TARRIO CARLOS ROBERTO         00000000012600000000000000000000000000011402700000000001197300000000000000000000000000000000000000000000000000000000000000000000000000000000000000000000000000000000005PES00010000001 6631535275180520160811
12018060106C000100034180000341800019600011111111Consumidor final              00000000004000000000000000000000000000003619900000000000380100000000000000000000000000000000000000000000000000000000000000000000000000000000000000000000000000000000005PES00010000001 6631535275180520160811
12018060201C000100007375000073750018030520628521FAGUAR S.A.C.I.               00000000025500000000000000000000000000023076900000000002423100000000000000000000000000000000000000000000000000000000000000000000000000000000000000000000000000000000001PES00010000001 6631535275180520160811
12018060201C000100007376000073760018030676145180ADROGUE FACTORY S R L         00000000002249900000000000000000000000002036100000000000213800000000000000000000000000000000000000000000000000000000000000000000000000000000000000000000000000000000001PES00010000001 6631535275180520160811
12018060201C000100007376000073760018030676145180ADROGUE FACTORY S R L         00000000003999900000000000000000000000003305700000000000694200000000000000000000000000000000000000000000000000000000000000000000000000000000000000000000000000000000001PES00010000001 6631535275180520160811
12018060201C000100007377000073770018030502496979TALLERES BANFIELD S A.C.I.I.Y 00000000043000000000000000000000000000035537200000000007462800000000000000000000000000000000000000000000000000000000000000000000000000000000000000000000000000000000001PES00010000001 6631535275180520160811
12018060401C000100007378000073780018030712045414PARASOL PUBLICIDAD S.R.L.     00000000006300000000000000000000000000005701400000000000598600000000000000000000000000000000000000000000000000000000000000000000000000000000000000000000000000000000001PES00010000001 6631535275180520160811
12018060401C000100007379000073790018030712045414PARASOL PUBLICIDAD S.R.L.     00000000006000000000000000000000000000005429900000000000570100000000000000000000000000000000000000000000000000000000000000000000000000000000000000000000000000000000001PES00010000001 6631535275180520160811
12018060401C000100007380000073800018030710108729VIGRALFE SRL                  00000000014499900000000000000000000000013122100000000001377800000000000000000000000000000000000000000000000000000000000000000000000000000000000000000000000000000000001PES00010000001 6631535275180520160811
12018060401C000100007381000073810018030710108729VIGRALFE SRL                  00000000003900000000000000000000000000003529400000000000370600000000000000000000000000000000000000000000000000000000000000000000000000000000000000000000000000000000001PES00010000001 6631535275180520160811
12018060401C000100007382000073820018027142805540CUNEO AMANDA BEATRIZ          00000000002500000000000000000000000000002066100000000000433900000000000000000000000000000000000000000000000000000000000000000000000000000000000000000000000000000000001PES00010000001 6631535275180520160811
12018060406C000100034181000341810019600011111111Consumidor final              00000000003100000000000000000000000000002805400000000000294600000000000000000000000000000000000000000000000000000000000000000000000000000000000000000000000000000000005PES00010000001 6631535275180520160811
12018060406C000100034182000341820019600011111111Consumidor final              00000000000600000000000000000000000000000495900000000000104100000000000000000000000000000000000000000000000000000000000000000000000000000000000000000000000000000000005PES00010000001 6631535275180520160811
12018060406C000100034183000341830019600011111111Consumidor final              00000000002500000000000000000000000000002262400000000000237600000000000000000000000000000000000000000000000000000000000000000000000000000000000000000000000000000000005PES00010000001 6631535275180520160811
12018060406C000100034183000341830019600011111111Consumidor final              00000000007800000000000000000000000000006446300000000001353700000000000000000000000000000000000000000000000000000000000000000000000000000000000000000000000000000000005PES00010000001 6631535275180520160811
12018060406C000100034184000341840019600011111111Consumidor final              00000000005500000000000000000000000000004545500000000000954600000000000000000000000000000000000000000000000000000000000000000000000000000000000000000000000000000000005PES00010000001 6631535275180520160811
12018060406C000100034185000341850019600011111111Consumidor final              00000000003100000000000000000000000000002805400000000000294600000000000000000000000000000000000000000000000000000000000000000000000000000000000000000000000000000000005PES00010000001 6631535275180520160811
12018060408C000100029981000299810019600011111111Consumidor final              -0000000006300000000000000000000000000000000000000000000000000000000000000000000000000000000000000000000000000000000000000000000000000000000000000000000000000000000001PES00010000001 6631535275180520160811
12018060501C000100007383000073830018030715470418TRIESTE INDUMENTARIA SRL      00000000005000000000000000000000000000004524900000000000475100000000000000000000000000000000000000000000000000000000000000000000000000000000000000000000000000000000001PES00010000001 6631535275180520160811
12018060501C000100007384000073840018030708854049GUOC S.R.L.                   00000000004500000000000000000000000000004072400000000000427600000000000000000000000000000000000000000000000000000000000000000000000000000000000000000000000000000000001PES00010000001 6631535275180520160811
12018060501C000100007385000073850018030693441818COMSERT S.R.L.                00000000005000000000000000000000000000004132200000000000867800000000000000000000000000000000000000000000000000000000000000000000000000000000000000000000000000000000001PES00010000001 6631535275180520160811
12018060501C000100007386000073860018020078375842ACEBEDO, HORACIO NESTOR       00000000005000000000000000000000000000004132200000000000867800000000000000000000000000000000000000000000000000000000000000000000000000000000000000000000000000000000001PES00010000001 6631535275180520160811
12018060501C000100007387000073870018030693441818COMSERT S.R.L.                00000000007899800000000000000000000000006528800000000001371000000000000000000000000000000000000000000000000000000000000000000000000000000000000000000000000000000000001PES00010000001 6631535275180520160811
12018060501C000100007388000073880018020043697596ALLENDE ENRIQUE MARIA         00000000006300000000000000000000000000005701400000000000598600000000000000000000000000000000000000000000000000000000000000000000000000000000000000000000000000000000001PES00010000001 6631535275180520160811
12018060501C000100007389000073890018030711037396SORGOL BIENES SA              00000000009999900000000000000000000000009049700000000000950200000000000000000000000000000000000000000000000000000000000000000000000000000000000000000000000000000000001PES00010000001 6631535275180520160811
12018060501C000100007390000073900018030707567399AKUA S A                      00000000019999900000000000000000000000018099500000000001900400000000000000000000000000000000000000000000000000000000000000000000000000000000000000000000000000000000001PES00010000001 6631535275180520160811
12018060506C000100034186000341860018030708170859HABITAT PARA LA HUMANIDAD ARGE00000000012000000000000000000000000000010859700000000001140300000000000000000000000000000000000000000000000000000000000000000000000000000000000000000000000000000000009PES00010000001 6631535275180520160811
12018060506C000100034187000341870019600011111111Consumidor final              00000000009600000000000000000000000000007933900000000001666100000000000000000000000000000000000000000000000000000000000000000000000000000000000000000000000000000000005PES00010000001 6631535275180520160811
12018060506C000100034188000341880019600011111111Consumidor final              00000000002800000000000000000000000000002314100000000000486000000000000000000000000000000000000000000000000000000000000000000000000000000000000000000000000000000000005PES00010000001 6631535275180520160811
12018060506C000100034189000341890019600011111111Consumidor final              00000000009500000000000000000000000000008597300000000000902700000000000000000000000000000000000000000000000000000000000000000000000000000000000000000000000000000000005PES00010000001 6631535275180520160811
12018060506C000100034190000341900019600011111111Consumidor final              00000000002700000000000000000000000000002231400000000000468600000000000000000000000000000000000000000000000000000000000000000000000000000000000000000000000000000000005PES00010000001 6631535275180520160811
12018060506C000100034191000341910019600011111111Consumidor final              00000000003800000000000000000000000000003140500000000000659500000000000000000000000000000000000000000000000000000000000000000000000000000000000000000000000000000000005PES00010000001 6631535275180520160811
12018060506C000100034192000341920019600011111111Consumidor final              00000000004500000000000000000000000000003719000000000000781000000000000000000000000000000000000000000000000000000000000000000000000000000000000000000000000000000000005PES00010000001 6631535275180520160811
12018060606C000100034193000341930019600011111111Consumidor final              00000000003400000000000000000000000000003076900000000000323100000000000000000000000000000000000000000000000000000000000000000000000000000000000000000000000000000000005PES00010000001 6631535275180520160811
12018060606C000100034194000341940019600011111111Consumidor final              00000000003200000000000000000000000000002895900000000000304100000000000000000000000000000000000000000000000000000000000000000000000000000000000000000000000000000000005PES00010000001 6631535275180520160811
12018060606C000100034195000341950019600011111111Consumidor final              00000000006000000000000000000000000000005429900000000000570100000000000000000000000000000000000000000000000000000000000000000000000000000000000000000000000000000000005PES00010000001 6631535275180520160811
12018060606C000100034196000341960019600011111111Consumidor final              00000000004900000000000000000000000000004049600000000000850400000000000000000000000000000000000000000000000000000000000000000000000000000000000000000000000000000000005PES00010000001 6631535275180520160811
12018060606C000100034197000341970019600011111111Consumidor final              00000000027500000000000000000000000000024886900000000002613100000000000000000000000000000000000000000000000000000000000000000000000000000000000000000000000000000000005PES00010000001 6631535275180520160811
12018060606C000100034198000341980019600011111111Consumidor final              00000000001200000000000000000000000000000991700000000000208300000000000000000000000000000000000000000000000000000000000000000000000000000000000000000000000000000000005PES00010000001 6631535275180520160811
12018060606C000100034199000341990019600011111111Consumidor final              00000000004000000000000000000000000000003305800000000000694200000000000000000000000000000000000000000000000000000000000000000000000000000000000000000000000000000000005PES00010000001 6631535275180520160811
12018060701C000100007391000073910018033711220629ODESSA OIL SRL                00000000004199900000000000000000000000003471000000000000728900000000000000000000000000000000000000000000000000000000000000000000000000000000000000000000000000000000001PES00010000001 6631535275180520160811
12018060701C000100007392000073920018030711313237ADROGUE CIOT S.A.             00000000009499900000000000000000000000008597200000000000902700000000000000000000000000000000000000000000000000000000000000000000000000000000000000000000000000000000001PES00010000001 6631535275180520160811
12018060701C000100007393000073930018020227187760BEVERAGGI, JUAN MANUEL        00000000006300000000000000000000000000005701400000000000598600000000000000000000000000000000000000000000000000000000000000000000000000000000000000000000000000000000001PES00010000001 6631535275180520160811
12018060701C000100007393000073930018020227187760BEVERAGGI, JUAN MANUEL        00000000006900000000000000000000000000005702500000000001197500000000000000000000000000000000000000000000000000000000000000000000000000000000000000000000000000000000001PES00010000001 6631535275180520160811
12018060701C000100007394000073940018030521147373GARBIN S.A                    00000000006000000000000000000000000000005429900000000000570100000000000000000000000000000000000000000000000000000000000000000000000000000000000000000000000000000000001PES00010000001 6631535275180520160811
12018060706C000100034200000342000019600011111111Consumidor final              00000000003400000000000000000000000000003076900000000000323100000000000000000000000000000000000000000000000000000000000000000000000000000000000000000000000000000000005PES00010000001 6631535275180520160811
12018060706C000100034200000342000019600011111111Consumidor final              00000000022500000000000000000000000000018595000000000003905000000000000000000000000000000000000000000000000000000000000000000000000000000000000000000000000000000000005PES00010000001 6631535275180520160811
12018060706C000100034201000342010019600011111111Consumidor final              00000000004500000000000000000000000000004072400000000000427600000000000000000000000000000000000000000000000000000000000000000000000000000000000000000000000000000000005PES00010000001 6631535275180520160811
12018060706C000100034202000342020019600011111111Consumidor final              00000000008000000000000000000000000000007239800000000000760200000000000000000000000000000000000000000000000000000000000000000000000000000000000000000000000000000000005PES00010000001 6631535275180520160811
12018060706C000100034203000342030019600011111111Consumidor final              00000000012500000000000000000000000000011312200000000001187800000000000000000000000000000000000000000000000000000000000000000000000000000000000000000000000000000000005PES00010000001 6631535275180520160811
12018060706C000100034204000342040019600011111111Consumidor final              00000000002700000000000000000000000000002231400000000000468600000000000000000000000000000000000000000000000000000000000000000000000000000000000000000000000000000000005PES00010000001 6631535275180520160811
12018060706C000100034205000342050019600011111111Consumidor final              00000000004000000000000000000000000000003305800000000000694200000000000000000000000000000000000000000000000000000000000000000000000000000000000000000000000000000000005PES00010000001 6631535275180520160811
12018060706C000100034206000342060019600011111111Consumidor final              00000000006500000000000000000000000000005371900000000001128100000000000000000000000000000000000000000000000000000000000000000000000000000000000000000000000000000000005PES00010000001 6631535275180520160811
12018060801C000100007395000073950018030708421878OSHMA S.R.L.                  00000000009999900000000000000000000000008264400000000001735500000000000000000000000000000000000000000000000000000000000000000000000000000000000000000000000000000000001PES00010000001 6631535275180520160811
12018060801C000100007396000073960018030715949292EYPAPEL                       00000000004300000000000000000000000000003891400000000000408600000000000000000000000000000000000000000000000000000000000000000000000000000000000000000000000000000000001PES00010000001 6631535275180520160811
12018060801C000100007396000073960018030715949292EYPAPEL                       00000000000600000000000000000000000000000495900000000000104100000000000000000000000000000000000000000000000000000000000000000000000000000000000000000000000000000000001PES00010000001 6631535275180520160811
12018060801C000100007397000073970018020076620874Canale Guillermo              00000000006500100000000000000000000000005882400000000000617700000000000000000000000000000000000000000000000000000000000000000000000000000000000000000000000000000000001PES00010000001 6631535275180520160811
12018060806C000100034207000342070019600011111111Consumidor final              00000000014500000000000000000000000000013122200000000001377800000000000000000000000000000000000000000000000000000000000000000000000000000000000000000000000000000000005PES00010000001 6631535275180520160811
12018060806C000100034208000342080019600011111111Colegio Nuestra Señora de Luja00000000013000000000000000000000000000011764700000000001235300000000000000000000000000000000000000000000000000000000000000000000000000000000000000000000000000000000005PES00010000001 6631535275180520160811
12018060806C000100034209000342090019600011111111Consumidor final              00000000020000000000000000000000000000016528900000000003471100000000000000000000000000000000000000000000000000000000000000000000000000000000000000000000000000000000005PES00010000001 6631535275180520160811
12018060806C000100034210000342100019600011111111Consumidor final              00000000001700000000000000000000000000001538500000000000161500000000000000000000000000000000000000000000000000000000000000000000000000000000000000000000000000000000005PES00010000001 6631535275180520160811
12018060806C000100034210000342100019600011111111Consumidor final              00000000003500000000000000000000000000002892600000000000607400000000000000000000000000000000000000000000000000000000000000000000000000000000000000000000000000000000005PES00010000001 6631535275180520160811
12018060806C000100034211000342110019600011111111Consumidor final              00000000008600000000000000000000000000007782800000000000817200000000000000000000000000000000000000000000000000000000000000000000000000000000000000000000000000000000005PES00010000001 6631535275180520160811
12018060806C000100034211000342110019600011111111Consumidor final              00000000012600000000000000000000000000010413200000000002186800000000000000000000000000000000000000000000000000000000000000000000000000000000000000000000000000000000005PES00010000001 6631535275180520160811
12018060806C000100034212000342120019600011111111Consumidor final              00000000000000000000000000000000000000000000000000000000000000000000000000000000000000000000000000000000000000000000000000000000000000000000000000000000000000000000001PES00010000001 6631535275180520160811
12018060806C000100034213000342130019600011111111Consumidor final              00000000000000000000000000000000000000000000000000000000000000000000000000000000000000000000000000000000000000000000000000000000000000000000000000000000000000000000001PES00010000001 6631535275180520160811
12018060806C000100034214000342140019600011111111Consumidor final              00000000090000000000000000000000000000081448000000000008552000000000000000000000000000000000000000000000000000000000000000000000000000000000000000000000000000000000005PES00010000001 6631535275180520160811
12018060806C000100034215000342150019600011111111Consumidor final              00000000052000000000000000000000000000047058800000000004941200000000000000000000000000000000000000000000000000000000000000000000000000000000000000000000000000000000005PES00010000001 6631535275180520160811
12018060901C000100007398000073980018030710797133CALVETTI GABRIEL IGNACIO Y CAL00000000004900000000000000000000000000004049600000000000850400000000000000000000000000000000000000000000000000000000000000000000000000000000000000000000000000000000001PES00010000001 6631535275180520160811
12018060901C000100007399000073990018030711579725RECYDE S.A.                   00000000005999900000000000000000000000004958600000000001041300000000000000000000000000000000000000000000000000000000000000000000000000000000000000000000000000000000001PES00010000001 6631535275180520160811
12018060901C000100007400000074000018020126342897ELIAS JUAN CARLOS             00000000009499900000000000000000000000008597200000000000902700000000000000000000000000000000000000000000000000000000000000000000000000000000000000000000000000000000001PES00010000001 6631535275180520160811
12018060906C000100034216000342160018030711287406CENTRO INTEGRAL CASA NUEVA SRL00000000004000000000000000000000000000003305800000000000694200000000000000000000000000000000000000000000000000000000000000000000000000000000000000000000000000000000009PES00010000001 6631535275180520160811
12018060906C000100034217000342170019600011111111Consumidor final              00000000015300000000000000000000000000013846200000000001453800000000000000000000000000000000000000000000000000000000000000000000000000000000000000000000000000000000005PES00010000001 6631535275180520160811
12018060906C000100034218000342180019600011111111Consumidor final              00000000004300000000000000000000000000003891400000000000408600000000000000000000000000000000000000000000000000000000000000000000000000000000000000000000000000000000005PES00010000001 6631535275180520160811
12018061101C000100007401000074010018023161774774SZMYR PATRICIA MIRIAM         00000000003400100000000000000000000000003077000000000000323100000000000000000000000000000000000000000000000000000000000000000000000000000000000000000000000000000000001PES00010000001 6631535275180520160811
12018061101C000100007402000074020018027142010017COUSTE HERMINIA MARIA         00000000005100100000000000000000000000004615500000000000484600000000000000000000000000000000000000000000000000000000000000000000000000000000000000000000000000000000001PES00010000001 6631535275180520160811
12018061101C000100007403000074030018030713383100TRASLADO Y PLANEAMIENTO ALMIRA00000000020000100000000000000000000000016529000000000003471100000000000000000000000000000000000000000000000000000000000000000000000000000000000000000000000000000000001PES00010000001 6631535275180520160811
12018061101C000100007404000074040018020923784978BALDACCHINO ANTONIO           00000000085999900000000000000000000000077828000000000008171900000000000000000000000000000000000000000000000000000000000000000000000000000000000000000000000000000000001PES00010000001 6631535275180520160811
12018061101C000100007405000074050018020923784978BALDACCHINO ANTONIO           00000000030000000000000000000000000000027149300000000002850700000000000000000000000000000000000000000000000000000000000000000000000000000000000000000000000000000000001PES00010000001 6631535275180520160811
12018061101C000100007406000074060018027145029991KRAGLIEVICH CARMEN            00000000008800000000000000000000000000007272700000000001527300000000000000000000000000000000000000000000000000000000000000000000000000000000000000000000000000000000001PES00010000001 6631535275180520160811
12018061101C000100007407000074070018030710108729VIGRALFE SRL                  00000000004500000000000000000000000000003719000000000000781000000000000000000000000000000000000000000000000000000000000000000000000000000000000000000000000000000000001PES00010000001 6631535275180520160811
12018061106C000100034219000342190019600011111111Consumidor final              00000000004000000000000000000000000000003305800000000000694200000000000000000000000000000000000000000000000000000000000000000000000000000000000000000000000000000000005PES00010000001 6631535275180520160811
12018061106C000100034220000342200019600011111111Consumidor final              00000000024900000000000000000000000000022533900000000002366100000000000000000000000000000000000000000000000000000000000000000000000000000000000000000000000000000000005PES00010000001 6631535275180520160811
12018061106C000100034221000342210019600011111111Consumidor final              00000000009000000000000000000000000000007438000000000001562000000000000000000000000000000000000000000000000000000000000000000000000000000000000000000000000000000000005PES00010000001 6631535275180520160811
12018061106C000100034222000342220019600011111111Consumidor final              00000000004300000000000000000000000000003891400000000000408600000000000000000000000000000000000000000000000000000000000000000000000000000000000000000000000000000000005PES00010000001 6631535275180520160811
12018061106C000100034223000342230019600011111111Consumidor final              00000000002900000000000000000000000000002624400000000000275600000000000000000000000000000000000000000000000000000000000000000000000000000000000000000000000000000000005PES00010000001 6631535275180520160811
12018061106C000100034224000342240019600011111111Consumidor final              00000000004000000000000000000000000000003305800000000000694200000000000000000000000000000000000000000000000000000000000000000000000000000000000000000000000000000000005PES00010000001 6631535275180520160811
12018061106C000100034225000342250019600011111111Consumidor final              00000000011000000000000000000000000000009090900000000001909100000000000000000000000000000000000000000000000000000000000000000000000000000000000000000000000000000000005PES00010000001 6631535275180520160811
12018061106C000100034226000342260019600011111111Consumidor final              00000000002500000000000000000000000000002262400000000000237600000000000000000000000000000000000000000000000000000000000000000000000000000000000000000000000000000000005PES00010000001 6631535275180520160811
12018061106C000100034227000342270019600011111111Consumidor final              00000000003000000000000000000000000000002479300000000000520700000000000000000000000000000000000000000000000000000000000000000000000000000000000000000000000000000000005PES00010000001 6631535275180520160811
12018061106C000100034228000342280019600011111111Consumidor final              00000000008500000000000000000000000000007024800000000001475200000000000000000000000000000000000000000000000000000000000000000000000000000000000000000000000000000000005PES00010000001 6631535275180520160811
12018061106C000100034229000342290019600011111111Consumidor final              00000000006500000000000000000000000000005371900000000001128100000000000000000000000000000000000000000000000000000000000000000000000000000000000000000000000000000000005PES00010000001 6631535275180520160811
12018061106C000100034230000342300019600011111111Consumidor final              00000000005200000000000000000000000000004297500000000000902500000000000000000000000000000000000000000000000000000000000000000000000000000000000000000000000000000000005PES00010000001 6631535275180520160811
12018061201C000100007408000074080018020276276906RAICES FEDERICO ANDRES        00000000003400100000000000000000000000003077000000000000323100000000000000000000000000000000000000000000000000000000000000000000000000000000000000000000000000000000001PES00010000001 6631535275180520160811
12018061201C000100007409000074090018030587088025CLINICA I M A SA              00000000002500000000000000000000000000002066100000000000433900000000000000000000000000000000000000000000000000000000000000000000000000000000000000000000000000000000001PES00010000001 6631535275180520160811
12018061201C000100007410000074100018030707153209SHITSUKE SRL                  00000000003600000000000000000000000000002975200000000000624800000000000000000000000000000000000000000000000000000000000000000000000000000000000000000000000000000000001PES00010000001 6631535275180520160811
12018061201C000100007411000074110018027211508669ESCUDERO MARIANA SILVIA       00000000004000000000000000000000000000003305800000000000694200000000000000000000000000000000000000000000000000000000000000000000000000000000000000000000000000000000001PES00010000001 6631535275180520160811
12018061206C000100034231000342310019600011111111Consumidor final              00000000012500000000000000000000000000011312200000000001187800000000000000000000000000000000000000000000000000000000000000000000000000000000000000000000000000000000005PES00010000001 6631535275180520160811
12018061206C000100034232000342320019600011111111Consumidor final              00000000005500000000000000000000000000004545500000000000954600000000000000000000000000000000000000000000000000000000000000000000000000000000000000000000000000000000005PES00010000001 6631535275180520160811
12018061206C000100034233000342330019600011111111Consumidor final              00000000007500000000000000000000000000006198300000000001301700000000000000000000000000000000000000000000000000000000000000000000000000000000000000000000000000000000005PES00010000001 6631535275180520160811
12018061206C000100034234000342340019600011111111Consumidor final              00000000019600000000000000000000000000017737600000000001862500000000000000000000000000000000000000000000000000000000000000000000000000000000000000000000000000000000005PES00010000001 6631535275180520160811
12018061206C000100034235000342350019600011111111Consumidor final              00000000009600000000000000000000000000008687800000000000912200000000000000000000000000000000000000000000000000000000000000000000000000000000000000000000000000000000005PES00010000001 6631535275180520160811
12018061206C000100034236000342360019600011111111Consumidor final              00000000006900000000000000000000000000005702500000000001197500000000000000000000000000000000000000000000000000000000000000000000000000000000000000000000000000000000005PES00010000001 6631535275180520160811
12018061206C000100034237000342370019600011111111Consumidor final              00000000006000000000000000000000000000005429900000000000570100000000000000000000000000000000000000000000000000000000000000000000000000000000000000000000000000000000005PES00010000001 6631535275180520160811
12018061206C000100034238000342380019600011111111Consumidor final              00000000003700000000000000000000000000003348400000000000351600000000000000000000000000000000000000000000000000000000000000000000000000000000000000000000000000000000005PES00010000001 6631535275180520160811
12018061301C000100007412000074120018020244815554LOPEZ FERNANDO ANDRES         00000000006300000000000000000000000000005701400000000000598600000000000000000000000000000000000000000000000000000000000000000000000000000000000000000000000000000000001PES00010000001 6631535275180520160811
12018061301C000100007413000074130018030711898189SABORES DE ADROGUE S.R.L.     00000000016500200000000000000000000000013636500000000002863700000000000000000000000000000000000000000000000000000000000000000000000000000000000000000000000000000000001PES00010000001 6631535275180520160811
12018061301C000100007414000074140018020076620874Canale Guillermo              00000000006000000000000000000000000000005429900000000000570100000000000000000000000000000000000000000000000000000000000000000000000000000000000000000000000000000000001PES00010000001 6631535275180520160811
12018061301C000100007414000074140018020076620874Canale Guillermo              00000000003999900000000000000000000000003305700000000000694200000000000000000000000000000000000000000000000000000000000000000000000000000000000000000000000000000000001PES00010000001 6631535275180520160811
12018061306C000100034239000342390019600011111111Colegio Nuestra Señora de Luja00000000003400000000000000000000000000003076900000000000323100000000000000000000000000000000000000000000000000000000000000000000000000000000000000000000000000000000005PES00010000001 6631535275180520160811
12018061306C000100034240000342400019600011111111Consumidor final              00000000004000000000000000000000000000003305800000000000694200000000000000000000000000000000000000000000000000000000000000000000000000000000000000000000000000000000005PES00010000001 6631535275180520160811
12018061306C000100034241000342410019600011111111Consumidor final              00000000018900000000000000000000000000015619800000000003280200000000000000000000000000000000000000000000000000000000000000000000000000000000000000000000000000000000005PES00010000001 6631535275180520160811
12018061306C000100034242000342420019600011111111Consumidor final              00000000007600000000000000000000000000006877800000000000722200000000000000000000000000000000000000000000000000000000000000000000000000000000000000000000000000000000005PES00010000001 6631535275180520160811
12018061306C000100034243000342430019600011111111Consumidor final              00000000003000000000000000000000000000002714900000000000285100000000000000000000000000000000000000000000000000000000000000000000000000000000000000000000000000000000005PES00010000001 6631535275180520160811
12018061306C000100034244000342440019600011111111Consumidor final              00000000005000000000000000000000000000004132200000000000867800000000000000000000000000000000000000000000000000000000000000000000000000000000000000000000000000000000005PES00010000001 6631535275180520160811
12018061401C000100007415000074150018030711313237ADROGUE CIOT S.A.             00000000004000000000000000000000000000003305800000000000694200000000000000000000000000000000000000000000000000000000000000000000000000000000000000000000000000000000001PES00010000001 6631535275180520160811
12018061401C000100007416000074160018033714903239OSVALDO SAEZ Y LEANDRO PEÑA S.00000000015600000000000000000000000000012892600000000002707400000000000000000000000000000000000000000000000000000000000000000000000000000000000000000000000000000000001PES00010000001 6631535275180520160811
12018061401C000100007417000074170018030711046271BUENOS AIRES CLIMATIZACION S.A00000000002199900000000000000000000000001990900000000000209000000000000000000000000000000000000000000000000000000000000000000000000000000000000000000000000000000000001PES00010000001 6631535275180520160811
12018061401C000100007417000074170018030711046271BUENOS AIRES CLIMATIZACION S.A00000000001899900000000000000000000000001570200000000000329700000000000000000000000000000000000000000000000000000000000000000000000000000000000000000000000000000000001PES00010000001 6631535275180520160811
12018061401C000100007418000074180018030711046271BUENOS AIRES CLIMATIZACION S.A00000000006500000000000000000000000000005371900000000001128100000000000000000000000000000000000000000000000000000000000000000000000000000000000000000000000000000000001PES00010000001 6631535275180520160811
12018061406C000100034245000342450019600011111111Consumidor final              00000000002200000000000000000000000000001818200000000000381800000000000000000000000000000000000000000000000000000000000000000000000000000000000000000000000000000000005PES00010000001 6631535275180520160811
12018061406C000100034246000342460019600011111111Consumidor final              00000000009000000000000000000000000000008144800000000000855200000000000000000000000000000000000000000000000000000000000000000000000000000000000000000000000000000000005PES00010000001 6631535275180520160811
12018061406C000100034247000342470019600011111111Consumidor final              00000000008800000000000000000000000000007963800000000000836200000000000000000000000000000000000000000000000000000000000000000000000000000000000000000000000000000000005PES00010000001 6631535275180520160811
12018061406C000100034248000342480019600011111111Consumidor final              00000000009500000000000000000000000000008597300000000000902700000000000000000000000000000000000000000000000000000000000000000000000000000000000000000000000000000000005PES00010000001 6631535275180520160811
12018061406C000100034249000342490019600011111111Consumidor final              00000000005000000000000000000000000000004524900000000000475100000000000000000000000000000000000000000000000000000000000000000000000000000000000000000000000000000000005PES00010000001 6631535275180520160811
12018061406C000100034250000342500019600011111111Consumidor final              00000000014800000000000000000000000000013393700000000001406400000000000000000000000000000000000000000000000000000000000000000000000000000000000000000000000000000000005PES00010000001 6631535275180520160811
12018061406C000100034251000342510019600011111111Consumidor final              00000000006500000000000000000000000000005371900000000001128100000000000000000000000000000000000000000000000000000000000000000000000000000000000000000000000000000000005PES00010000001 6631535275180520160811
12018061406C000100034252000342520019600011111111Consumidor final              00000000010000000000000000000000000000009049800000000000950200000000000000000000000000000000000000000000000000000000000000000000000000000000000000000000000000000000005PES00010000001 6631535275180520160811
12018061406C000100034253000342530019600011111111Consumidor final              00000000000800000000000000000000000000000661200000000000138800000000000000000000000000000000000000000000000000000000000000000000000000000000000000000000000000000000005PES00010000001 6631535275180520160811
12018061406C000100034254000342540019600011111111Consumidor final              00000000013500000000000000000000000000011157000000000002343000000000000000000000000000000000000000000000000000000000000000000000000000000000000000000000000000000000005PES00010000001 6631535275180520160811
12018061406C000100034255000342550019600011111111Consumidor final              00000000015300000000000000000000000000013846200000000001453800000000000000000000000000000000000000000000000000000000000000000000000000000000000000000000000000000000005PES00010000001 6631535275180520160811
12018061406C000100034256000342560019600011111111Consumidor final              00000000005900000000000000000000000000004876000000000001024000000000000000000000000000000000000000000000000000000000000000000000000000000000000000000000000000000000005PES00010000001 6631535275180520160811
12018061406C000100034257000342570019600011111111Consumidor final              00000000001500000000000000000000000000001239700000000000260300000000000000000000000000000000000000000000000000000000000000000000000000000000000000000000000000000000005PES00010000001 6631535275180520160811
12018061501C000100007419000074190018030616148113SAN MIGUEL INMOBILIARIA FINANC00000000006499900000000000000000000000005882300000000000617600000000000000000000000000000000000000000000000000000000000000000000000000000000000000000000000000000000001PES00010000001 6631535275180520160811
12018061501C000100007420000074200018020101387373MINGOLLA, CRISTOBAL DANTE     00000000007400000000000000000000000000006696800000000000703200000000000000000000000000000000000000000000000000000000000000000000000000000000000000000000000000000000001PES00010000001 6631535275180520160811
12018061501C000100007420000074200018020101387373MINGOLLA, CRISTOBAL DANTE     00000000008499900000000000000000000000007024700000000001475200000000000000000000000000000000000000000000000000000000000000000000000000000000000000000000000000000000001PES00010000001 6631535275180520160811
12018061501C000100007421000074210018030589231240CIRCULO ODONTOLOGICO DE ALMIRA00000000003000000000000000000000000000002714900000000000285100000000000000000000000000000000000000000000000000000000000000000000000000000000000000000000000000000000001PES00010000001 6631535275180520160811
12018061506C000100034258000342580019600011111111Consumidor final              00000000006900000000000000000000000000006244300000000000655700000000000000000000000000000000000000000000000000000000000000000000000000000000000000000000000000000000005PES00010000001 6631535275180520160811
12018061506C000100034259000342590019600011111111Consumidor final              00000000001000000000000000000000000000000826400000000000173600000000000000000000000000000000000000000000000000000000000000000000000000000000000000000000000000000000005PES00010000001 6631535275180520160811
12018061506C000100034260000342600019600011111111Consumidor final              00000000009800000000000000000000000000008868800000000000931200000000000000000000000000000000000000000000000000000000000000000000000000000000000000000000000000000000005PES00010000001 6631535275180520160811
12018061506C000100034261000342610019600011111111Consumidor final              00000000008700000000000000000000000000007190100000000001509900000000000000000000000000000000000000000000000000000000000000000000000000000000000000000000000000000000005PES00010000001 6631535275180520160811
12018061506C000100034262000342620019600011111111Consumidor final              00000000004000000000000000000000000000003305800000000000694200000000000000000000000000000000000000000000000000000000000000000000000000000000000000000000000000000000005PES00010000001 6631535275180520160811
12018061506C000100034263000342630019600011111111Consumidor final              00000000004900000000000000000000000000004049600000000000850400000000000000000000000000000000000000000000000000000000000000000000000000000000000000000000000000000000005PES00010000001 6631535275180520160811
12018061506C000100034264000342640019600011111111Consumidor final              00000000003000000000000000000000000000002479300000000000520700000000000000000000000000000000000000000000000000000000000000000000000000000000000000000000000000000000005PES00010000001 6631535275180520160811
12018061506C000100034265000342650019600011111111Consumidor final              00000000003500000000000000000000000000002892600000000000607400000000000000000000000000000000000000000000000000000000000000000000000000000000000000000000000000000000005PES00010000001 6631535275180520160811
12018061506C000100034266000342660019600011111111Consumidor final              00000000002500000000000000000000000000002066100000000000433900000000000000000000000000000000000000000000000000000000000000000000000000000000000000000000000000000000005PES00010000001 6631535275180520160811
12018061506C000100034267000342670019600011111111Consumidor final              00000000003000000000000000000000000000002479300000000000520700000000000000000000000000000000000000000000000000000000000000000000000000000000000000000000000000000000005PES00010000001 6631535275180520160811
12018061506C000100034268000342680018030627393713INSTITUTO SUPERIOR DE FORMACIO00000000003500000000000000000000000000002892600000000000607400000000000000000000000000000000000000000000000000000000000000000000000000000000000000000000000000000000009PES00010000001 6631535275180520160811
12018061506C000100034269000342690019600011111111Consumidor final              00000000007500000000000000000000000000006787300000000000712700000000000000000000000000000000000000000000000000000000000000000000000000000000000000000000000000000000005PES00010000001 6631535275180520160811
12018061506C000100034270000342700019600011111111Consumidor final              00000000001800000000000000000000000000001629000000000000171000000000000000000000000000000000000000000000000000000000000000000000000000000000000000000000000000000000005PES00010000001 6631535275180520160811
12018061506C000100034271000342710019600011111111Consumidor final              00000000003000000000000000000000000000002479300000000000520700000000000000000000000000000000000000000000000000000000000000000000000000000000000000000000000000000000005PES00010000001 6631535275180520160811
12018061606C000100034272000342720019600011111111Consumidor final              00000000007900000000000000000000000000006528900000000001371100000000000000000000000000000000000000000000000000000000000000000000000000000000000000000000000000000000005PES00010000001 6631535275180520160811
12018061606C000100034273000342730019600011111111Consumidor final              00000000043500000000000000000000000000039366500000000004133500000000000000000000000000000000000000000000000000000000000000000000000000000000000000000000000000000000005PES00010000001 6631535275180520160811
12018061606C000100034274000342740019600011111111Consumidor final              00000000005500000000000000000000000000004545500000000000954600000000000000000000000000000000000000000000000000000000000000000000000000000000000000000000000000000000005PES00010000001 6631535275180520160811
12018061606C000100034275000342750019600011111111Consumidor final              00000000005500000000000000000000000000004977400000000000522600000000000000000000000000000000000000000000000000000000000000000000000000000000000000000000000000000000005PES00010000001 6631535275180520160811
12018061606C000100034276000342760019600011111111Consumidor final              00000000001500000000000000000000000000001239700000000000260300000000000000000000000000000000000000000000000000000000000000000000000000000000000000000000000000000000005PES00010000001 6631535275180520160811
12018061801C000100007422000074220018030709158151Coinal SA                     00000000008500000000000000000000000000007024800000000001475200000000000000000000000000000000000000000000000000000000000000000000000000000000000000000000000000000000001PES00010000001 6631535275180520160811
12018061801C000100007423000074230018027118891479ORTIZ , ELIDA ALICIA          00000000004899900000000000000000000000004434300000000000465600000000000000000000000000000000000000000000000000000000000000000000000000000000000000000000000000000000001PES00010000001 6631535275180520160811
12018061801C000100007423000074230018027118891479ORTIZ , ELIDA ALICIA          00000000007260000000000000000000000000006000000000000001260000000000000000000000000000000000000000000000000000000000000000000000000000000000000000000000000000000000001PES00010000001 6631535275180520160811
12018061801C000100007424000074240018030713383100TRASLADO Y PLANEAMIENTO ALMIRA00000000020599900000000000000000000000018642400000000001957500000000000000000000000000000000000000000000000000000000000000000000000000000000000000000000000000000000001PES00010000001 6631535275180520160811
12018061801C000100007424000074240018030713383100TRASLADO Y PLANEAMIENTO ALMIRA00000000002199900000000000000000000000001818100000000000381800000000000000000000000000000000000000000000000000000000000000000000000000000000000000000000000000000000001PES00010000001 6631535275180520160811
12018061806C000100034277000342770019600011111111Consumidor final              00000000016250000000000000000000000000013429800000000002820200000000000000000000000000000000000000000000000000000000000000000000000000000000000000000000000000000000005PES00010000001 6631535275180520160811
12018061806C000100034278000342780018033999001489Municipalidad de Alte Brown   00000000003000000000000000000000000000002714900000000000285100000000000000000000000000000000000000000000000000000000000000000000000000000000000000000000000000000000009PES00010000001 6631535275180520160811
12018061806C000100034279000342790019600011111111Consumidor final              00000000002000000000000000000000000000001652900000000000347100000000000000000000000000000000000000000000000000000000000000000000000000000000000000000000000000000000005PES00010000001 6631535275180520160811
12018061806C000100034280000342800019600011111111Consumidor final              00000000002400000000000000000000000000002171900000000000228100000000000000000000000000000000000000000000000000000000000000000000000000000000000000000000000000000000005PES00010000001 6631535275180520160811
12018061806C000100034281000342810019600011111111Consumidor final              00000000001800000000000000000000000000001487600000000000312400000000000000000000000000000000000000000000000000000000000000000000000000000000000000000000000000000000005PES00010000001 6631535275180520160811
12018061806C000100034282000342820019600011111111Consumidor final              00000000003500000000000000000000000000002892600000000000607400000000000000000000000000000000000000000000000000000000000000000000000000000000000000000000000000000000005PES00010000001 6631535275180520160811
12018061806C000100034283000342830019600011111111Consumidor final              00000000012100000000000000000000000000010950200000000001149800000000000000000000000000000000000000000000000000000000000000000000000000000000000000000000000000000000005PES00010000001 6631535275180520160811
12018061806C000100034284000342840019600011111111Consumidor final              00000000003000000000000000000000000000002714900000000000285100000000000000000000000000000000000000000000000000000000000000000000000000000000000000000000000000000000005PES00010000001 6631535275180520160811
12018061806C000100034285000342850019600011111111Consumidor final              00000000010500000000000000000000000000008677700000000001822300000000000000000000000000000000000000000000000000000000000000000000000000000000000000000000000000000000005PES00010000001 6631535275180520160811
12018061806C000100034286000342860019600011111111Consumidor final              00000000008900000000000000000000000000007355400000000001544600000000000000000000000000000000000000000000000000000000000000000000000000000000000000000000000000000000005PES00010000001 6631535275180520160811
12018061806C000100034287000342870019600011111111Consumidor final              00000000003900000000000000000000000000003529400000000000370600000000000000000000000000000000000000000000000000000000000000000000000000000000000000000000000000000000005PES00010000001 6631535275180520160811
12018061808C000100029982000299820019600011111111Consumidor final              -0000000002000000000000000000000000000000000000000000000000000000000000000000000000000000000000000000000000000000000000000000000000000000000000000000000000000000000001PES00010000001 6631535275180520160811
12018061901C000100007425000074250018030708318465RADIOLOGIA DIAGNOSTICA ARGENTI00000000003000000000000000000000000000002714900000000000285100000000000000000000000000000000000000000000000000000000000000000000000000000000000000000000000000000000001PES00010000001 6631535275180520160811
12018061906C000100034288000342880019600011111111Consumidor final              00000000005000000000000000000000000000004132200000000000867800000000000000000000000000000000000000000000000000000000000000000000000000000000000000000000000000000000005PES00010000001 6631535275180520160811
12018061906C000100034289000342890019600011111111Consumidor final              00000000001400000000000000000000000000001157000000000000243000000000000000000000000000000000000000000000000000000000000000000000000000000000000000000000000000000000005PES00010000001 6631535275180520160811
12018061906C000100034290000342900019600011111111Colegio Nuestra Señora de Luja00000000002000000000000000000000000000001810000000000000190100000000000000000000000000000000000000000000000000000000000000000000000000000000000000000000000000000000005PES00010000001 6631535275180520160811
12018061906C000100034291000342910019600011111111Consumidor final              00000000003000000000000000000000000000002479300000000000520700000000000000000000000000000000000000000000000000000000000000000000000000000000000000000000000000000000005PES00010000001 6631535275180520160811
12018061906C000100034292000342920019600011111111Consumidor final              00000000005500000000000000000000000000004977400000000000522600000000000000000000000000000000000000000000000000000000000000000000000000000000000000000000000000000000005PES00010000001 6631535275180520160811
12018061906C000100034292000342920019600011111111Consumidor final              00000000001000000000000000000000000000000826400000000000173600000000000000000000000000000000000000000000000000000000000000000000000000000000000000000000000000000000005PES00010000001 6631535275180520160811
12018061906C000100034293000342930019600011111111Consumidor final              00000000002500000000000000000000000000002262400000000000237600000000000000000000000000000000000000000000000000000000000000000000000000000000000000000000000000000000005PES00010000001 6631535275180520160811
12018061906C000100034293000342930019600011111111Consumidor final              00000000001500000000000000000000000000001239700000000000260300000000000000000000000000000000000000000000000000000000000000000000000000000000000000000000000000000000005PES00010000001 6631535275180520160811
12018061908C000100029983000299830019600011111111Consumidor final              -0000000005000000000000000000000000000000000000000000000000000000000000000000000000000000000000000000000000000000000000000000000000000000000000000000000000000000000001PES00010000001 6631535275180520160811
12018062101C000100007426000074260018020083165783GIARDINO, OMAR EDUARDO        00000000004899900000000000000000000000004049500000000000850400000000000000000000000000000000000000000000000000000000000000000000000000000000000000000000000000000000001PES00010000001 6631535275180520160811
12018062101C000100007427000074270018020050896170FLORIDO, OSVALDO HECTOR       00000000010000200000000000000000000000008264600000000001735600000000000000000000000000000000000000000000000000000000000000000000000000000000000000000000000000000000001PES00010000001 6631535275180520160811
12018062101C000100007428000074280018023161774774SZMYR PATRICIA MIRIAM         00000000004000100000000000000000000000003620000000000000380100000000000000000000000000000000000000000000000000000000000000000000000000000000000000000000000000000000001PES00010000001 6631535275180520160811
12018062106C000100034294000342940019600011111111Consumidor final              00000000001800000000000000000000000000001629000000000000171000000000000000000000000000000000000000000000000000000000000000000000000000000000000000000000000000000000005PES00010000001 6631535275180520160811
12018062106C000100034295000342950019600011111111Consumidor final              00000000013900000000000000000000000000012579200000000001320800000000000000000000000000000000000000000000000000000000000000000000000000000000000000000000000000000000005PES00010000001 6631535275180520160811
12018062106C000100034296000342960019600011111111Consumidor final              00000000003000000000000000000000000000002479300000000000520700000000000000000000000000000000000000000000000000000000000000000000000000000000000000000000000000000000005PES00010000001 6631535275180520160811
12018062106C000100034297000342970019600011111111Consumidor final              00000000009000000000000000000000000000008144800000000000855200000000000000000000000000000000000000000000000000000000000000000000000000000000000000000000000000000000005PES00010000001 6631535275180520160811
12018062106C000100034298000342980019600011111111Consumidor final              00000000009500000000000000000000000000007851200000000001648800000000000000000000000000000000000000000000000000000000000000000000000000000000000000000000000000000000005PES00010000001 6631535275180520160811
12018062106C000100034299000342990019600011111111Consumidor final              00000000003800000000000000000000000000003140500000000000659500000000000000000000000000000000000000000000000000000000000000000000000000000000000000000000000000000000005PES00010000001 6631535275180520160811
12018062106C000100034300000343000019600011111111Consumidor final              00000000003500000000000000000000000000002892600000000000607400000000000000000000000000000000000000000000000000000000000000000000000000000000000000000000000000000000005PES00010000001 6631535275180520160811
12018062106C000100034301000343010019600011111111Consumidor final              00000000009000000000000000000000000000007438000000000001562000000000000000000000000000000000000000000000000000000000000000000000000000000000000000000000000000000000005PES00010000001 6631535275180520160811
12018062106C000100034302000343020019600011111111Consumidor final              00000000003500000000000000000000000000002892600000000000607400000000000000000000000000000000000000000000000000000000000000000000000000000000000000000000000000000000005PES00010000001 6631535275180520160811
12018062106C000100034303000343030019600011111111Consumidor final              00000000023000000000000000000000000000020814500000000002185500000000000000000000000000000000000000000000000000000000000000000000000000000000000000000000000000000000005PES00010000001 6631535275180520160811
12018062106C000100034304000343040019600011111111Consumidor final              00000000004700000000000000000000000000004253400000000000446600000000000000000000000000000000000000000000000000000000000000000000000000000000000000000000000000000000005PES00010000001 6631535275180520160811
12018062106C000100034304000343040019600011111111Consumidor final              00000000003000000000000000000000000000002479300000000000520700000000000000000000000000000000000000000000000000000000000000000000000000000000000000000000000000000000005PES00010000001 6631535275180520160811
12018062108C000100029984000299840019600011111111Consumidor final              -0000000003500000000000000000000000000000000000000000000000000000000000000000000000000000000000000000000000000000000000000000000000000000000000000000000000000000000001PES00010000001 6631535275180520160811
12018062201C000100007429000074290018030714440183INDUSTRIAS FERNANDEZ GARRIDO S00000000011499800000000000000000000000009504000000000001995800000000000000000000000000000000000000000000000000000000000000000000000000000000000000000000000000000000001PES00010000001 6631535275180520160811
12018062206C000100034305000343050019600011111111Consumidor final              00000000011000000000000000000000000000009090900000000001909100000000000000000000000000000000000000000000000000000000000000000000000000000000000000000000000000000000005PES00010000001 6631535275180520160811
12018062206C000100034306000343060019600011111111Consumidor final              00000000013300000000000000000000000000012036200000000001263800000000000000000000000000000000000000000000000000000000000000000000000000000000000000000000000000000000005PES00010000001 6631535275180520160811
12018062206C000100034307000343070019600011111111Consumidor final              00000000009500000000000000000000000000007851200000000001648800000000000000000000000000000000000000000000000000000000000000000000000000000000000000000000000000000000005PES00010000001 6631535275180520160811
12018062206C000100034308000343080019600011111111Consumidor final              00000000004600000000000000000000000000004162900000000000437100000000000000000000000000000000000000000000000000000000000000000000000000000000000000000000000000000000005PES00010000001 6631535275180520160811
12018062206C000100034309000343090019600011111111Consumidor final              00000000002500000000000000000000000000002262400000000000237600000000000000000000000000000000000000000000000000000000000000000000000000000000000000000000000000000000005PES00010000001 6631535275180520160811
12018062206C000100034309000343090019600011111111Consumidor final              00000000001900000000000000000000000000001570200000000000329800000000000000000000000000000000000000000000000000000000000000000000000000000000000000000000000000000000005PES00010000001 6631535275180520160811
12018062206C000100034310000343100019600011111111Consumidor final              00000000026500000000000000000000000000023981900000000002518100000000000000000000000000000000000000000000000000000000000000000000000000000000000000000000000000000000005PES00010000001 6631535275180520160811
12018062206C000100034311000343110019600011111111Consumidor final              00000000011000000000000000000000000000009090900000000001909100000000000000000000000000000000000000000000000000000000000000000000000000000000000000000000000000000000005PES00010000001 6631535275180520160811
12018062206C000100034312000343120019600011111111Consumidor final              00000000003900000000000000000000000000003223100000000000676900000000000000000000000000000000000000000000000000000000000000000000000000000000000000000000000000000000005PES00010000001 6631535275180520160811
12018062206C000100034313000343130019600011111111Consumidor final              00000000020700000000000000000000000000017107400000000003592600000000000000000000000000000000000000000000000000000000000000000000000000000000000000000000000000000000005PES00010000001 6631535275180520160811
12018062206C000100034314000343140019600011111111Consumidor final              00000000005500000000000000000000000000004545500000000000954600000000000000000000000000000000000000000000000000000000000000000000000000000000000000000000000000000000005PES00010000001 6631535275180520160811
12018062301C000100007430000074300018020085917707Dodds guillermo horacio       00000000008400000000000000000000000000007601800000000000798200000000000000000000000000000000000000000000000000000000000000000000000000000000000000000000000000000000001PES00010000001 6631535275180520160811
12018062301C000100007431000074310018023085767089JAIMOVICH JORGE ALEJANDRO I   00000000007600000000000000000000000000006281000000000001319000000000000000000000000000000000000000000000000000000000000000000000000000000000000000000000000000000000001PES00010000001 6631535275180520160811
12018062301C000100007432000074320018020200239629PREBBLE ENRIQUE JORGE         00000000009999900000000000000000000000009049700000000000950200000000000000000000000000000000000000000000000000000000000000000000000000000000000000000000000000000000001PES00010000001 6631535275180520160811
12018062306C000100034315000343150019600011111111Consumidor final              00000000006700000000000000000000000000006063300000000000636700000000000000000000000000000000000000000000000000000000000000000000000000000000000000000000000000000000005PES00010000001 6631535275180520160811
12018062306C000100034316000343160019600011111111Consumidor final              00000000047200000000000000000000000000039008300000000008191700000000000000000000000000000000000000000000000000000000000000000000000000000000000000000000000000000000005PES00010000001 6631535275180520160811
12018062306C000100034317000343170019600011111111Consumidor final              00000000002500000000000000000000000000002066100000000000433900000000000000000000000000000000000000000000000000000000000000000000000000000000000000000000000000000000005PES00010000001 6631535275180520160811
12018062306C000100034318000343180019600011111111Consumidor final              00000000013700000000000000000000000000012398200000000001301800000000000000000000000000000000000000000000000000000000000000000000000000000000000000000000000000000000005PES00010000001 6631535275180520160811
12018062306C000100034318000343180019600011111111Consumidor final              00000000009900000000000000000000000000008181800000000001718200000000000000000000000000000000000000000000000000000000000000000000000000000000000000000000000000000000005PES00010000001 6631535275180520160811
12018062306C000100034319000343190019600011111111Consumidor final              00000000006500000000000000000000000000005371900000000001128100000000000000000000000000000000000000000000000000000000000000000000000000000000000000000000000000000000005PES00010000001 6631535275180520160811
12018062306C000100034320000343200019600011111111Consumidor final              00000000008500000000000000000000000000007024800000000001475200000000000000000000000000000000000000000000000000000000000000000000000000000000000000000000000000000000005PES00010000001 6631535275180520160811
12018062306C000100034321000343210019600011111111Consumidor final              00000000008500000000000000000000000000007024800000000001475200000000000000000000000000000000000000000000000000000000000000000000000000000000000000000000000000000000005PES00010000001 6631535275180520160811
12018062306C000100034322000343220019600011111111Consumidor final              00000000006300000000000000000000000000005701400000000000598600000000000000000000000000000000000000000000000000000000000000000000000000000000000000000000000000000000005PES00010000001 6631535275180520160811
12018062306C000100034323000343230019600011111111Consumidor final              00000000009900000000000000000000000000008959300000000000940700000000000000000000000000000000000000000000000000000000000000000000000000000000000000000000000000000000005PES00010000001 6631535275180520160811
12018062308C000100029985000299850019600011111111Consumidor final              -0000000008500000000000000000000000000000000000000000000000000000000000000000000000000000000000000000000000000000000000000000000000000000000000000000000000000000000001PES00010000001 6631535275180520160811
12018062501C000100007433000074330018033709388679CH PLUS ASESORES DE SEGUROS S.00000000008000000000000000000000000000006611600000000001388400000000000000000000000000000000000000000000000000000000000000000000000000000000000000000000000000000000001PES00010000001 6631535275180520160811
12018062501C000100007434000074340018030707567399AKUA S A                      00000000035250000000000000000000000000029132200000000006117800000000000000000000000000000000000000000000000000000000000000000000000000000000000000000000000000000000001PES00010000001 6631535275180520160811
12018062501C000100007435000074350018030711313237ADROGUE CIOT S.A.             00000000033880000000000000000000000000028000000000000005880000000000000000000000000000000000000000000000000000000000000000000000000000000000000000000000000000000000001PES00010000001 6631535275180520160811
12018062501C000100007436000074360018030707215158GENERAL INK FACTORY S.A.      00000000090387000000000000000000000000074700000000000015687000000000000000000000000000000000000000000000000000000000000000000000000000000000000000000000000000000000001PES00010000001 6631535275180520160811
12018062501C000100007437000074370018027263720909ROBILOTTA, LAURA LUCRECIA     00000000033880000000000000000000000000028000000000000005880000000000000000000000000000000000000000000000000000000000000000000000000000000000000000000000000000000000001PES00010000001 6631535275180520160811
12018062501C000100007438000074380018030520628521FAGUAR S.A.C.I.               00000000089950900000000000000000000000074339600000000015611300000000000000000000000000000000000000000000000000000000000000000000000000000000000000000000000000000000001PES00010000001 6631535275180520160811
12018062501C000100007439000074390018020167769765RODRIGUEZ RODA GABRIEL EDUARDO00000000030250000000000000000000000000025000000000000005250000000000000000000000000000000000000000000000000000000000000000000000000000000000000000000000000000000000001PES00010000001 6631535275180520160811
12018062501C000100007440000074400018020229237951ROMERO HERNAN ESTEBAN         00000000004000000000000000000000000000003305800000000000694200000000000000000000000000000000000000000000000000000000000000000000000000000000000000000000000000000000001PES00010000001 6631535275180520160811
12018062506C000100034324000343240019600011111111Consumidor final              00000000090000000000000000000000000000081448000000000008552000000000000000000000000000000000000000000000000000000000000000000000000000000000000000000000000000000000005PES00010000001 6631535275180520160811
12018062506C000100034325000343250019600011111111Consumidor final              00000000074900000000000000000000000000067782800000000007117200000000000000000000000000000000000000000000000000000000000000000000000000000000000000000000000000000000005PES00010000001 6631535275180520160811
12018062506C000100034326000343260019600011111111Consumidor final              00000000010600000000000000000000000000008760300000000001839700000000000000000000000000000000000000000000000000000000000000000000000000000000000000000000000000000000005PES00010000001 6631535275180520160811
12018062506C000100034327000343270018030662255390COLEGIO JOSE HERNANDEZ SRL    00000000087800000000000000000000000000079457000000000008343000000000000000000000000000000000000000000000000000000000000000000000000000000000000000000000000000000000009PES00010000001 6631535275180520160811
12018062506C000100034328000343280018030662255390COLEGIO JOSE HERNANDEZ SRL    00000000027900000000000000000000000000025248900000000002651100000000000000000000000000000000000000000000000000000000000000000000000000000000000000000000000000000000009PES00010000001 6631535275180520160811
12018062506C000100034328000343280018030662255390COLEGIO JOSE HERNANDEZ SRL    00000000054450000000000000000000000000045000000000000009450000000000000000000000000000000000000000000000000000000000000000000000000000000000000000000000000000000000009PES00010000001 6631535275180520160811
12018062506C000100034329000343290018030709093890M MEDUCAR S A                 00000000048000000000000000000000000000039669400000000008330600000000000000000000000000000000000000000000000000000000000000000000000000000000000000000000000000000000009PES00010000001 6631535275180520160811
12018062506C000100034330000343300019600011111111Consumidor final              00000000002500000000000000000000000000002262400000000000237600000000000000000000000000000000000000000000000000000000000000000000000000000000000000000000000000000000005PES00010000001 6631535275180520160811
12018062506C000100034331000343310019600011111111Consumidor final              00000000008500000000000000000000000000007024800000000001475200000000000000000000000000000000000000000000000000000000000000000000000000000000000000000000000000000000005PES00010000001 6631535275180520160811
12018062601C000100007441000074410018030716048019VOLTAICA ANMATECH S.A.        00000000010000300000000000000000000000009050000000000000950300000000000000000000000000000000000000000000000000000000000000000000000000000000000000000000000000000000001PES00010000001 6631535275180520160811
12018062601C000100007442000074420018020167769765RODRIGUEZ RODA GABRIEL EDUARDO00000000012000000000000000000000000000010859700000000001140300000000000000000000000000000000000000000000000000000000000000000000000000000000000000000000000000000000001PES00010000001 6631535275180520160811
12018062601C000100007443000074430018020227187760BEVERAGGI, JUAN MANUEL        00000000006900000000000000000000000000006244300000000000655700000000000000000000000000000000000000000000000000000000000000000000000000000000000000000000000000000000001PES00010000001 6631535275180520160811
12018062601C000100007443000074430018020227187760BEVERAGGI, JUAN MANUEL        00000000055000100000000000000000000000045454600000000009545500000000000000000000000000000000000000000000000000000000000000000000000000000000000000000000000000000000001PES00010000001 6631535275180520160811
12018062601C000100007444000074440018020045192165BERRETINO FERNANDO AMERICO    00000000009399900000000000000000000000008506700000000000893200000000000000000000000000000000000000000000000000000000000000000000000000000000000000000000000000000000001PES00010000001 6631535275180520160811
12018062606C000100034332000343320019600011111111Consumidor final              00000000005500000000000000000000000000004977400000000000522600000000000000000000000000000000000000000000000000000000000000000000000000000000000000000000000000000000005PES00010000001 6631535275180520160811
12018062606C000100034333000343330019600011111111Consumidor final              00000000004500000000000000000000000000003719000000000000781000000000000000000000000000000000000000000000000000000000000000000000000000000000000000000000000000000000005PES00010000001 6631535275180520160811
12018062606C000100034334000343340019600011111111Consumidor final              00000000008500000000000000000000000000007024800000000001475200000000000000000000000000000000000000000000000000000000000000000000000000000000000000000000000000000000005PES00010000001 6631535275180520160811
12018062606C000100034335000343350019600011111111Consumidor final              00000000005500000000000000000000000000004545500000000000954600000000000000000000000000000000000000000000000000000000000000000000000000000000000000000000000000000000005PES00010000001 6631535275180520160811
12018062606C000100034336000343360019600011111111Consumidor final              00000000013800000000000000000000000000012488700000000001311300000000000000000000000000000000000000000000000000000000000000000000000000000000000000000000000000000000005PES00010000001 6631535275180520160811
12018062606C000100034337000343370019600011111111Consumidor final              00000000013800000000000000000000000000012488700000000001311300000000000000000000000000000000000000000000000000000000000000000000000000000000000000000000000000000000005PES00010000001 6631535275180520160811
12018062606C000100034338000343380019600011111111Consumidor final              00000000013225000000000000000000000000010929800000000002295300000000000000000000000000000000000000000000000000000000000000000000000000000000000000000000000000000000005PES00010000001 6631535275180520160811
12018062701C000100007445000074450018030711898189SABORES DE ADROGUE S.R.L.     00000000016500200000000000000000000000013636500000000002863700000000000000000000000000000000000000000000000000000000000000000000000000000000000000000000000000000000001PES00010000001 6631535275180520160811
12018062701C000100007446000074460018027118891479ORTIZ , ELIDA ALICIA          00000000006900000000000000000000000000006244300000000000655700000000000000000000000000000000000000000000000000000000000000000000000000000000000000000000000000000000001PES00010000001 6631535275180520160811
12018062701C000100007447000074470018030647440610ICL SRL                       00000000001499900000000000000000000000001239600000000000260300000000000000000000000000000000000000000000000000000000000000000000000000000000000000000000000000000000001PES00010000001 6631535275180520160811
12018062706C000100034339000343390019600011111111Consumidor final              00000000001500000000000000000000000000001239700000000000260300000000000000000000000000000000000000000000000000000000000000000000000000000000000000000000000000000000005PES00010000001 6631535275180520160811
12018062706C000100034340000343400019600011111111Consumidor final              00000000001700000000000000000000000000001405000000000000295000000000000000000000000000000000000000000000000000000000000000000000000000000000000000000000000000000000005PES00010000001 6631535275180520160811
12018062706C000100034341000343410019600011111111Consumidor final              00000000011000000000000000000000000000009954800000000001045300000000000000000000000000000000000000000000000000000000000000000000000000000000000000000000000000000000005PES00010000001 6631535275180520160811
12018062706C000100034342000343420019600011111111Consumidor final              00000000003000000000000000000000000000002479300000000000520700000000000000000000000000000000000000000000000000000000000000000000000000000000000000000000000000000000005PES00010000001 6631535275180520160811
12018062706C000100034343000343430019600011111111Consumidor final              00000000009000000000000000000000000000007438000000000001562000000000000000000000000000000000000000000000000000000000000000000000000000000000000000000000000000000000005PES00010000001 6631535275180520160811
12018062706C000100034344000343440019600011111111Consumidor final              00000000006000000000000000000000000000005429900000000000570100000000000000000000000000000000000000000000000000000000000000000000000000000000000000000000000000000000005PES00010000001 6631535275180520160811
12018062706C000100034345000343450019600011111111Consumidor final              00000000007500000000000000000000000000006198300000000001301700000000000000000000000000000000000000000000000000000000000000000000000000000000000000000000000000000000005PES00010000001 6631535275180520160811
12018062801C000100007448000074480018020133221213KRAGLIEVICH CARLOS ALBERTO    00000000003999900000000000000000000000003619800000000000380100000000000000000000000000000000000000000000000000000000000000000000000000000000000000000000000000000000001PES00010000001 6631535275180520160811
12018062801C000100007448000074480018020133221213KRAGLIEVICH CARLOS ALBERTO    00000000008499900000000000000000000000007024700000000001475200000000000000000000000000000000000000000000000000000000000000000000000000000000000000000000000000000000001PES00010000001 6631535275180520160811
12018062801C000100007449000074490018020323824801MELE OSCAR ALBERTO            00000000014599800000000000000000000000013212500000000001387300000000000000000000000000000000000000000000000000000000000000000000000000000000000000000000000000000000001PES00010000001 6631535275180520160811
12018062806C000100034346000343460019600011111111Consumidor final              00000000004000000000000000000000000000003305800000000000694200000000000000000000000000000000000000000000000000000000000000000000000000000000000000000000000000000000005PES00010000001 6631535275180520160811
12018062806C000100034347000343470019600011111111Consumidor final              00000000013900000000000000000000000000012579200000000001320800000000000000000000000000000000000000000000000000000000000000000000000000000000000000000000000000000000005PES00010000001 6631535275180520160811
12018062806C000100034348000343480019600011111111Consumidor final              00000000004900000000000000000000000000004434400000000000465600000000000000000000000000000000000000000000000000000000000000000000000000000000000000000000000000000000005PES00010000001 6631535275180520160811
12018062806C000100034349000343490019600011111111Consumidor final              00000000003900000000000000000000000000003223100000000000676900000000000000000000000000000000000000000000000000000000000000000000000000000000000000000000000000000000005PES00010000001 6631535275180520160811
12018062806C000100034350000343500019600011111111Consumidor final              00000000018900000000000000000000000000015619800000000003280200000000000000000000000000000000000000000000000000000000000000000000000000000000000000000000000000000000005PES00010000001 6631535275180520160811
12018062806C000100034351000343510019600011111111Consumidor final              00000000001500000000000000000000000000001239700000000000260300000000000000000000000000000000000000000000000000000000000000000000000000000000000000000000000000000000005PES00010000001 6631535275180520160811
12018062806C000100034352000343520019600011111111Consumidor final              00000000001200000000000000000000000000001086000000000000114000000000000000000000000000000000000000000000000000000000000000000000000000000000000000000000000000000000005PES00010000001 6631535275180520160811
12018062806C000100034353000343530019600011111111Consumidor final              00000000013800000000000000000000000000012488700000000001311300000000000000000000000000000000000000000000000000000000000000000000000000000000000000000000000000000000005PES00010000001 6631535275180520160811
12018062806C000100034354000343540019600011111111Consumidor final              00000000005500000000000000000000000000004977400000000000522600000000000000000000000000000000000000000000000000000000000000000000000000000000000000000000000000000000005PES00010000001 6631535275180520160811
12018062806C000100034355000343550019600011111111Consumidor final              00000000001800000000000000000000000000001487600000000000312400000000000000000000000000000000000000000000000000000000000000000000000000000000000000000000000000000000005PES00010000001 6631535275180520160811
12018062806C000100034356000343560019600011111111Consumidor final              00000000004600000000000000000000000000004162900000000000437100000000000000000000000000000000000000000000000000000000000000000000000000000000000000000000000000000000005PES00010000001 6631535275180520160811
12018062806C000100034357000343570019600011111111Consumidor final              00000000004500000000000000000000000000003719000000000000781000000000000000000000000000000000000000000000000000000000000000000000000000000000000000000000000000000000005PES00010000001 6631535275180520160811
12018062806C000100034358000343580019600011111111Consumidor final              00000000004200000000000000000000000000003800900000000000399100000000000000000000000000000000000000000000000000000000000000000000000000000000000000000000000000000000005PES00010000001 6631535275180520160811
12018062901C000100007450000074500018027127843754Bailez, Maria Marcela         00000000005999800000000000000000000000005429700000000000570100000000000000000000000000000000000000000000000000000000000000000000000000000000000000000000000000000000001PES00010000001 6631535275180520160811
12018062901C000100007451000074510018030711602123MOENA SA                      00000000002900000000000000000000000000002396700000000000503300000000000000000000000000000000000000000000000000000000000000000000000000000000000000000000000000000000001PES00010000001 6631535275180520160811
12018062906C000100034359000343590019600011111111Consumidor final              00000000006900000000000000000000000000006244300000000000655700000000000000000000000000000000000000000000000000000000000000000000000000000000000000000000000000000000005PES00010000001 6631535275180520160811
12018062906C000100034360000343600019600011111111Consumidor final              00000000012000000000000000000000000000010859700000000001140300000000000000000000000000000000000000000000000000000000000000000000000000000000000000000000000000000000005PES00010000001 6631535275180520160811
12018062906C000100034361000343610019600011111111Consumidor final              00000000003200000000000000000000000000002895900000000000304100000000000000000000000000000000000000000000000000000000000000000000000000000000000000000000000000000000005PES00010000001 6631535275180520160811
12018062906C000100034362000343620019600011111111Consumidor final              00000000003800000000000000000000000000003438900000000000361100000000000000000000000000000000000000000000000000000000000000000000000000000000000000000000000000000000005PES00010000001 6631535275180520160811
12018062906C000100034363000343630019600011111111Consumidor final              00000000012500000000000000000000000000011312200000000001187800000000000000000000000000000000000000000000000000000000000000000000000000000000000000000000000000000000005PES00010000001 6631535275180520160811
12018062906C000100034364000343640019600011111111Consumidor final              00000000023500000000000000000000000000021267000000000002233000000000000000000000000000000000000000000000000000000000000000000000000000000000000000000000000000000000005PES00010000001 6631535275180520160811
12018062906C000100034365000343650019600011111111Consumidor final              00000000005500000000000000000000000000004977400000000000522600000000000000000000000000000000000000000000000000000000000000000000000000000000000000000000000000000000005PES00010000001 6631535275180520160811
12018062906C000100034366000343660018030711287406CENTRO INTEGRAL CASA NUEVA SRL00000000018900000000000000000000000000017104100000000001795900000000000000000000000000000000000000000000000000000000000000000000000000000000000000000000000000000000009PES00010000001 6631535275180520160811
12018062906C000100034367000343670019600011111111Consumidor final              00000000001500000000000000000000000000001239700000000000260300000000000000000000000000000000000000000000000000000000000000000000000000000000000000000000000000000000005PES00010000001 6631535275180520160811
12018062906C000100034368000343680019600011111111Consumidor final              00000000004500000000000000000000000000003719000000000000781000000000000000000000000000000000000000000000000000000000000000000000000000000000000000000000000000000000005PES00010000001 6631535275180520160811
12018063001C000100007452000074520018030711046271BUENOS AIRES CLIMATIZACION S.A00000000005799900000000000000000000000005248800000000000551100000000000000000000000000000000000000000000000000000000000000000000000000000000000000000000000000000000001PES00010000001 6631535275180520160811
12018063001C000100007452000074520018030711046271BUENOS AIRES CLIMATIZACION S.A00000000002199900000000000000000000000001818100000000000381800000000000000000000000000000000000000000000000000000000000000000000000000000000000000000000000000000000001PES00010000001 6631535275180520160811
12018063006C000100034369000343690019600011111111Consumidor final              00000000014600000000000000000000000000013212700000000001387300000000000000000000000000000000000000000000000000000000000000000000000000000000000000000000000000000000005PES00010000001 6631535275180520160811
12018063006C000100034370000343700019600011111111Consumidor final              00000000006800000000000000000000000000005619800000000001180200000000000000000000000000000000000000000000000000000000000000000000000000000000000000000000000000000000005PES00010000001 6631535275180520160811
12018063006C000100034371000343710019600011111111Consumidor final              00000000004500000000000000000000000000003719000000000000781000000000000000000000000000000000000000000000000000000000000000000000000000000000000000000000000000000000005PES00010000001 6631535275180520160811
12018063006C000100034372000343720019600011111111Consumidor final              00000000011000000000000000000000000000009090900000000001909100000000000000000000000000000000000000000000000000000000000000000000000000000000000000000000000000000000005PES00010000001 6631535275180520160811
2201801             00000302                 20276886542                    00000031037307900000000000000000000002717700090000000041133189000000000000000000000000000000000000000000000000000000000000000000000000000
