12018070201C000100007453000074530018027226805325GOMEZ VERONICA MARIA          00000000004500000000000000000000000000003720000000000000780000000000000000000000000000000000000000000000000000000000000000000000000000000000000000000000000000000000001PES00010000001 6631535275180520160811
12018070201C000100007454000074540018030711313237ADROGUE CIOT S.A.             00000000004000000000000000000000000000003310000000000000690000000000000000000000000000000000000000000000000000000000000000000000000000000000000000000000000000000000001PES00010000001 6631535275180520160811
12018070201C000100007455000074550018020078375842ACEBEDO, HORACIO NESTOR       00000000031000000000000000000000000000025620000000000005380000000000000000000000000000000000000000000000000000000000000000000000000000000000000000000000000000000000001PES00010000001 6631535275180520160811
12018070201C000100007456000074560018020114017699PADILLA JORGE OSCAR           00000000100000000000000000000000000000090500000000000009500000000000000000000000000000000000000000000000000000000000000000000000000000000000000000000000000000000000001PES00010000001 6631535275180520160811
12018070201C000100007457000074570018020114017699PADILLA JORGE OSCAR           00000000100000000000000000000000000000090500000000000009500000000000000000000000000000000000000000000000000000000000000000000000000000000000000000000000000000000000001PES00010000001 6631535275180520160811
12018070201C000100007458000074580018020114017699PADILLA JORGE OSCAR           00000000012000000000000000000000000000010860000000000001140000000000000000000000000000000000000000000000000000000000000000000000000000000000000000000000000000000000001PES00010000001 6631535275180520160811
12018070206C000100034373000343730019600011111111Consumidor final              00000000004500000000000000000000000000003720000000000000780000000000000000000000000000000000000000000000000000000000000000000000000000000000000000000000000000000000005PES00010000001 6631535275180520160811
12018070206C000100034374000343740019600011111111Consumidor final              00000000004900000000000000000000000000004050000000000000850000000000000000000000000000000000000000000000000000000000000000000000000000000000000000000000000000000000005PES00010000001 6631535275180520160811
12018070206C000100034375000343750019600011111111Consumidor final              00000000030930000000000000000000000000025560000000000005370000000000000000000000000000000000000000000000000000000000000000000000000000000000000000000000000000000000005PES00010000001 6631535275180520160811
12018070206C000100034376000343760019600011111111Consumidor final              00000000016900000000000000000000000000015290000000000001610000000000000000000000000000000000000000000000000000000000000000000000000000000000000000000000000000000000005PES00010000001 6631535275180520160811
12018070206C000100034377000343770019600011111111Consumidor final              00000000003700000000000000000000000000003060000000000000640000000000000000000000000000000000000000000000000000000000000000000000000000000000000000000000000000000000005PES00010000001 6631535275180520160811
12018070206C000100034378000343780019600011111111Consumidor final              00000000012000000000000000000000000000009920000000000002080000000000000000000000000000000000000000000000000000000000000000000000000000000000000000000000000000000000005PES00010000001 6631535275180520160811
12018070206C000100034379000343790019600011111111Consumidor final              00000000004400000000000000000000000000003980000000000000420000000000000000000000000000000000000000000000000000000000000000000000000000000000000000000000000000000000005PES00010000001 6631535275180520160811
12018070206C000100034380000343800019600011111111Consumidor final              00000000011000000000000000000000000000009090000000000001910000000000000000000000000000000000000000000000000000000000000000000000000000000000000000000000000000000000005PES00010000001 6631535275180520160811
12018070206C000100034381000343810019600011111111Consumidor final              00000000001200000000000000000000000000000990000000000000210000000000000000000000000000000000000000000000000000000000000000000000000000000000000000000000000000000000005PES00010000001 6631535275180520160811
12018070206C000100034382000343820019600011111111Consumidor final              00000000016000000000000000000000000000014480000000000001520000000000000000000000000000000000000000000000000000000000000000000000000000000000000000000000000000000000005PES00010000001 6631535275180520160811
12018070206C000100034383000343830019600011111111Consumidor final              00000000003000000000000000000000000000002480000000000000520000000000000000000000000000000000000000000000000000000000000000000000000000000000000000000000000000000000005PES00010000001 6631535275180520160811
12018070301C000100007459000074590018033610954699CENTRO DE TOMOGRAFIA COMPUTADA00000000003000000000000000000000000000002480000000000000520000000000000000000000000000000000000000000000000000000000000000000000000000000000000000000000000000000000001PES00010000001 6631535275180520160811
12018070301C000100007460000074600018030714212741WORLD FUSION S.A.             00000000005900000000000000000000000000005340000000000000560000000000000000000000000000000000000000000000000000000000000000000000000000000000000000000000000000000000001PES00010000001 6631535275180520160811
12018070301C000100007461000074610018030710461747COSMOS ARGENTINA S.R.L.       00000000023900000000000000000000000000021630000000000002270000000000000000000000000000000000000000000000000000000000000000000000000000000000000000000000000000000000001PES00010000001 6631535275180520160811
12018070301C000100007461000074610018030710461747COSMOS ARGENTINA S.R.L.       00000000030250000000000000000000000000025000000000000005250000000000000000000000000000000000000000000000000000000000000000000000000000000000000000000000000000000000001PES00010000001 6631535275180520160811
12018070306C000100034384000343840019600011111111Consumidor final              00000000003000000000000000000000000000002480000000000000520000000000000000000000000000000000000000000000000000000000000000000000000000000000000000000000000000000000005PES00010000001 6631535275180520160811
12018070306C000100034385000343850019600011111111Consumidor final              00000000014600000000000000000000000000013210000000000001390000000000000000000000000000000000000000000000000000000000000000000000000000000000000000000000000000000000005PES00010000001 6631535275180520160811
12018070306C000100034386000343860019600011111111Consumidor final              00000000006900000000000000000000000000006240000000000000660000000000000000000000000000000000000000000000000000000000000000000000000000000000000000000000000000000000005PES00010000001 6631535275180520160811
12018070306C000100034386000343860019600011111111Consumidor final              00000000007400000000000000000000000000006120000000000001280000000000000000000000000000000000000000000000000000000000000000000000000000000000000000000000000000000000005PES00010000001 6631535275180520160811
12018070306C000100034387000343870019600011111111Consumidor final              00000000019900000000000000000000000000018010000000000001890000000000000000000000000000000000000000000000000000000000000000000000000000000000000000000000000000000000005PES00010000001 6631535275180520160811
12018070306C000100034388000343880019600011111111Consumidor final              00000000004500000000000000000000000000004070000000000000430000000000000000000000000000000000000000000000000000000000000000000000000000000000000000000000000000000000005PES00010000001 6631535275180520160811
12018070306C000100034389000343890019600011111111Consumidor final              00000000003000000000000000000000000000002480000000000000520000000000000000000000000000000000000000000000000000000000000000000000000000000000000000000000000000000000005PES00010000001 6631535275180520160811
12018070308C000100029986000299860019600011111111Consumidor final              -0000000006900000000000000000000000000000000000000000000000000000000000000000000000000000000000000000000000000000000000000000000000000000000000000000000000000000000001PES00010000001 6631535275180520160811
12018070308C000100029986000299860019600011111111Consumidor final              -0000000007400000000000000000000000000000000000000000000000000000000000000000000000000000000000000000000000000000000000000000000000000000000000000000000000000000000001PES00010000001 6631535275180520160811
12018070401C000100007462000074620018030714440183INDUSTRIAS FERNANDEZ GARRIDO S00000000004500000000000000000000000000003720000000000000780000000000000000000000000000000000000000000000000000000000000000000000000000000000000000000000000000000000001PES00010000001 6631535275180520160811
12018070401C000100007463000074630018020277675170GUILLERMO JAIMOVICH           00000000003000000000000000000000000000002480000000000000520000000000000000000000000000000000000000000000000000000000000000000000000000000000000000000000000000000000001PES00010000001 6631535275180520160811
12018070401C000100007464000074640018020101387373MINGOLLA, CRISTOBAL DANTE     00000000006700000000000000000000000000006060000000000000640000000000000000000000000000000000000000000000000000000000000000000000000000000000000000000000000000000000001PES00010000001 6631535275180520160811
12018070401C000100007464000074640018020101387373MINGOLLA, CRISTOBAL DANTE     00000000003200000000000000000000000000002640000000000000560000000000000000000000000000000000000000000000000000000000000000000000000000000000000000000000000000000000001PES00010000001 6631535275180520160811
12018070401C000100007465000074650018020119559430OSTERC MARCELO                00000000031700000000000000000000000000028690000000000003010000000000000000000000000000000000000000000000000000000000000000000000000000000000000000000000000000000000001PES00010000001 6631535275180520160811
12018070401C000100007466000074660018020937475633Telmo Alvarez                 00000000000800000000000000000000000000000660000000000000140000000000000000000000000000000000000000000000000000000000000000000000000000000000000000000000000000000000001PES00010000001 6631535275180520160811
12018070401C000100007467000074670018030710461747COSMOS ARGENTINA S.R.L.       00000000028900000000000000000000000000026150000000000002750000000000000000000000000000000000000000000000000000000000000000000000000000000000000000000000000000000000001PES00010000001 6631535275180520160811
12018070401C000100007468000074680018027060326385COCHELLA MARIA CRISTINA       00000000025000000000000000000000000000022620000000000002380000000000000000000000000000000000000000000000000000000000000000000000000000000000000000000000000000000000001PES00010000001 6631535275180520160811
12018070401C000100007468000074680018027060326385COCHELLA MARIA CRISTINA       00000000002200000000000000000000000000001820000000000000380000000000000000000000000000000000000000000000000000000000000000000000000000000000000000000000000000000000001PES00010000001 6631535275180520160811
12018070401C000100007469000074690018030711037396SORGOL BIENES SA              00000000002200000000000000000000000000001820000000000000380000000000000000000000000000000000000000000000000000000000000000000000000000000000000000000000000000000000001PES00010000001 6631535275180520160811
12018070401C000100007470000074700018030711602123MOENA SA                      00000000003900000000000000000000000000003220000000000000680000000000000000000000000000000000000000000000000000000000000000000000000000000000000000000000000000000000001PES00010000001 6631535275180520160811
12018070406C000100034390000343900019600011111111Consumidor final              00000000008000000000000000000000000000007240000000000000760000000000000000000000000000000000000000000000000000000000000000000000000000000000000000000000000000000000005PES00010000001 6631535275180520160811
12018070406C000100034391000343910019600011111111Consumidor final              00000000002900000000000000000000000000002400000000000000500000000000000000000000000000000000000000000000000000000000000000000000000000000000000000000000000000000000005PES00010000001 6631535275180520160811
12018070406C000100034392000343920019600011111111Consumidor final              00000000005900000000000000000000000000004880000000000001020000000000000000000000000000000000000000000000000000000000000000000000000000000000000000000000000000000000005PES00010000001 6631535275180520160811
12018070406C000100034393000343930019600011111111Consumidor final              00000000004900000000000000000000000000004430000000000000470000000000000000000000000000000000000000000000000000000000000000000000000000000000000000000000000000000000005PES00010000001 6631535275180520160811
12018070406C000100034394000343940019600011111111Consumidor final              00000000003700000000000000000000000000003060000000000000640000000000000000000000000000000000000000000000000000000000000000000000000000000000000000000000000000000000005PES00010000001 6631535275180520160811
12018070406C000100034395000343950019600011111111Consumidor final              00000000005600000000000000000000000000005070000000000000530000000000000000000000000000000000000000000000000000000000000000000000000000000000000000000000000000000000005PES00010000001 6631535275180520160811
12018070406C000100034396000343960019600011111111Consumidor final              00000000001000000000000000000000000000000830000000000000170000000000000000000000000000000000000000000000000000000000000000000000000000000000000000000000000000000000005PES00010000001 6631535275180520160811
12018070406C000100034397000343970019600011111111Consumidor final              00000000003500000000000000000000000000002890000000000000610000000000000000000000000000000000000000000000000000000000000000000000000000000000000000000000000000000000005PES00010000001 6631535275180520160811
12018070406C000100034398000343980019600011111111Consumidor final              00000000005500000000000000000000000000004550000000000000950000000000000000000000000000000000000000000000000000000000000000000000000000000000000000000000000000000000005PES00010000001 6631535275180520160811
12018070406C000100034399000343990019600011111111Consumidor final              00000000005000000000000000000000000000004520000000000000480000000000000000000000000000000000000000000000000000000000000000000000000000000000000000000000000000000000005PES00010000001 6631535275180520160811
12018070406C000100034399000343990019600011111111Consumidor final              00000000001700000000000000000000000000001410000000000000300000000000000000000000000000000000000000000000000000000000000000000000000000000000000000000000000000000000005PES00010000001 6631535275180520160811
12018070406C000100034400000344000019600011111111Consumidor final              00000000005400000000000000000000000000004890000000000000510000000000000000000000000000000000000000000000000000000000000000000000000000000000000000000000000000000000005PES00010000001 6631535275180520160811
12018070406C000100034400000344000019600011111111Consumidor final              00000000002200000000000000000000000000001820000000000000380000000000000000000000000000000000000000000000000000000000000000000000000000000000000000000000000000000000005PES00010000001 6631535275180520160811
12018070406C000100034401000344010019600011111111Consumidor final              00000000003000000000000000000000000000002480000000000000520000000000000000000000000000000000000000000000000000000000000000000000000000000000000000000000000000000000005PES00010000001 6631535275180520160811
12018070406C000100034402000344020019600011111111Consumidor final              00000000001000000000000000000000000000000830000000000000170000000000000000000000000000000000000000000000000000000000000000000000000000000000000000000000000000000000005PES00010000001 6631535275180520160811
12018070403C000100006081000060810018030711602123MOENA SA                      -0000000002900000000000000000000000000000000000000000000000000000000000000000000000000000000000000000000000000000000000000000000000000000000000000000000000000000000001PES00010000001 6631535275180520160811
12018070501C000100007470000074700018033537963749ASOCIACION LAICAL FRATERNA ALM00000000003000000000000000000000000000002480000000000000520000000000000000000000000000000000000000000000000000000000000000000000000000000000000000000000000000000000009PES00010000001 6631535275180520160811
12018070501C000100007471000074710018030547592553IRISO SOCIEDAD EN COMANDITA PO00000000007900000000000000000000000000007150000000000000750000000000000000000000000000000000000000000000000000000000000000000000000000000000000000000000000000000000001PES00010000001 6631535275180520160811
12018070501C000100007472000074720018020161204715VERDE RAFAEL                  00000000010000000000000000000000000000009050000000000000950000000000000000000000000000000000000000000000000000000000000000000000000000000000000000000000000000000000001PES00010000001 6631535275180520160811
12018070501C000100007473000074730018030711870969TRANSMISIONES INDUSTRIALES S.A00000000020000000000000000000000000000018100000000000001900000000000000000000000000000000000000000000000000000000000000000000000000000000000000000000000000000000000001PES00010000001 6631535275180520160811
12018070501C000100007474000074740018030676224218Imagenes I M A                00000000003700000000000000000000000000003350000000000000350000000000000000000000000000000000000000000000000000000000000000000000000000000000000000000000000000000000001PES00010000001 6631535275180520160811
12018070501C000100007474000074740018030676224218Imagenes I M A                00000000000800000000000000000000000000000660000000000000140000000000000000000000000000000000000000000000000000000000000000000000000000000000000000000000000000000000001PES00010000001 6631535275180520160811
12018070506C000100034403000344030019600011111111Consumidor final              00000000015500000000000000000000000000012810000000000002690000000000000000000000000000000000000000000000000000000000000000000000000000000000000000000000000000000000005PES00010000001 6631535275180520160811
12018070506C000100034404000344040019600011111111Consumidor final              00000000033400000000000000000000000000027600000000000005800000000000000000000000000000000000000000000000000000000000000000000000000000000000000000000000000000000000005PES00010000001 6631535275180520160811
12018070506C000100034405000344050018033537963749ASOCIACION LAICAL FRATERNA ALM00000000003000000000000000000000000000002480000000000000520000000000000000000000000000000000000000000000000000000000000000000000000000000000000000000000000000000000009PES00010000001 6631535275180520160811
12018070506C000100034406000344060019600011111111Consumidor final              00000000004900000000000000000000000000004430000000000000470000000000000000000000000000000000000000000000000000000000000000000000000000000000000000000000000000000000005PES00010000001 6631535275180520160811
12018070506C000100034407000344070019600011111111Consumidor final              00000000003700000000000000000000000000003350000000000000350000000000000000000000000000000000000000000000000000000000000000000000000000000000000000000000000000000000005PES00010000001 6631535275180520160811
12018070506C000100034407000344070019600011111111Consumidor final              00000000001500000000000000000000000000001240000000000000260000000000000000000000000000000000000000000000000000000000000000000000000000000000000000000000000000000000005PES00010000001 6631535275180520160811
12018070506C000100034408000344080019600011111111Consumidor final              00000000003700000000000000000000000000003060000000000000640000000000000000000000000000000000000000000000000000000000000000000000000000000000000000000000000000000000005PES00010000001 6631535275180520160811
12018070506C000100034409000344090019600011111111Consumidor final              00000000007000000000000000000000000000006330000000000000670000000000000000000000000000000000000000000000000000000000000000000000000000000000000000000000000000000000005PES00010000001 6631535275180520160811
12018070506C000100034409000344090019600011111111Consumidor final              00000000003500000000000000000000000000002890000000000000610000000000000000000000000000000000000000000000000000000000000000000000000000000000000000000000000000000000005PES00010000001 6631535275180520160811
12018070506C000100034410000344100019600011111111Consumidor final              00000000005900000000000000000000000000005340000000000000560000000000000000000000000000000000000000000000000000000000000000000000000000000000000000000000000000000000005PES00010000001 6631535275180520160811
12018070506C000100034410000344100019600011111111Consumidor final              00000000004700000000000000000000000000003880000000000000820000000000000000000000000000000000000000000000000000000000000000000000000000000000000000000000000000000000005PES00010000001 6631535275180520160811
12018070506C000100034411000344110019600011111111Consumidor final              00000000005000000000000000000000000000004520000000000000480000000000000000000000000000000000000000000000000000000000000000000000000000000000000000000000000000000000005PES00010000001 6631535275180520160811
12018070506C000100034412000344120019600011111111Consumidor final              00000000004500000000000000000000000000003720000000000000780000000000000000000000000000000000000000000000000000000000000000000000000000000000000000000000000000000000005PES00010000001 6631535275180520160811
12018070506C000100034413000344130019600011111111Consumidor final              00000000003400000000000000000000000000002810000000000000590000000000000000000000000000000000000000000000000000000000000000000000000000000000000000000000000000000000005PES00010000001 6631535275180520160811
12018070506C000100034414000344140019600011111111Consumidor final              00000000011900000000000000000000000000010770000000000001130000000000000000000000000000000000000000000000000000000000000000000000000000000000000000000000000000000000005PES00010000001 6631535275180520160811
12018070601C000100007475000074750018030711465452CLUB DE OTONIO                00000000015200000000000000000000000000013760000000000001440000000000000000000000000000000000000000000000000000000000000000000000000000000000000000000000000000000000001PES00010000001 6631535275180520160811
12018070601C000100007476000074760018030712307745VYAM GROUP SRL                00000000007500000000000000000000000000006200000000000001300000000000000000000000000000000000000000000000000000000000000000000000000000000000000000000000000000000000001PES00010000001 6631535275180520160811
12018070601C000100007477000074770018024253147640PARADISO HERNAN DANIEL        00000000009900000000000000000000000000008960000000000000940000000000000000000000000000000000000000000000000000000000000000000000000000000000000000000000000000000000001PES00010000001 6631535275180520160811
12018070606C000100034415000344150019600011111111Consumidor final              00000000007500000000000000000000000000006200000000000001300000000000000000000000000000000000000000000000000000000000000000000000000000000000000000000000000000000000005PES00010000001 6631535275180520160811
12018070606C000100034416000344160019600011111111Consumidor final              00000000004500000000000000000000000000003720000000000000780000000000000000000000000000000000000000000000000000000000000000000000000000000000000000000000000000000000005PES00010000001 6631535275180520160811
12018070606C000100034417000344170019600011111111Consumidor final              00000000006900000000000000000000000000006240000000000000660000000000000000000000000000000000000000000000000000000000000000000000000000000000000000000000000000000000005PES00010000001 6631535275180520160811
12018070606C000100034418000344180019600011111111Consumidor final              00000000004500000000000000000000000000004070000000000000430000000000000000000000000000000000000000000000000000000000000000000000000000000000000000000000000000000000005PES00010000001 6631535275180520160811
12018070606C000100034419000344190019600011111111Consumidor final              00000000003400000000000000000000000000003080000000000000320000000000000000000000000000000000000000000000000000000000000000000000000000000000000000000000000000000000005PES00010000001 6631535275180520160811
12018070606C000100034420000344200019600011111111Consumidor final              00000000004900000000000000000000000000004430000000000000470000000000000000000000000000000000000000000000000000000000000000000000000000000000000000000000000000000000005PES00010000001 6631535275180520160811
12018070606C000100034421000344210019600011111111Consumidor final              00000000166900000000000000000000000000151040000000000015860000000000000000000000000000000000000000000000000000000000000000000000000000000000000000000000000000000000005PES00010000001 6631535275180520160811
12018070606C000100034422000344220019600011111111Consumidor final              00000000080000000000000000000000000000072400000000000007600000000000000000000000000000000000000000000000000000000000000000000000000000000000000000000000000000000000005PES00010000001 6631535275180520160811
12018070606C000100034423000344230019600011111111Consumidor final              00000000086900000000000000000000000000078640000000000008260000000000000000000000000000000000000000000000000000000000000000000000000000000000000000000000000000000000005PES00010000001 6631535275180520160811
12018070606C000100034424000344240019600011111111Consumidor final              00000000005000000000000000000000000000004520000000000000480000000000000000000000000000000000000000000000000000000000000000000000000000000000000000000000000000000000005PES00010000001 6631535275180520160811
12018070606C000100034425000344250019600011111111Consumidor final              00000000003900000000000000000000000000003220000000000000680000000000000000000000000000000000000000000000000000000000000000000000000000000000000000000000000000000000005PES00010000001 6631535275180520160811
12018070608C000100029987000299870019600011111111Consumidor final              -0000000166900000000000000000000000000000000000000000000000000000000000000000000000000000000000000000000000000000000000000000000000000000000000000000000000000000000001PES00010000001 6631535275180520160811
12018070701C000100007478000074780018020133227440MARTIN DIEGO BRIE             00000000001200000000000000000000000000000990000000000000210000000000000000000000000000000000000000000000000000000000000000000000000000000000000000000000000000000000001PES00010000001 6631535275180520160811
12018070701C000100007479000074790018030712311653SILVIA C. BALSAMO Y VERONICA K00000000001200000000000000000000000000001090000000000000110000000000000000000000000000000000000000000000000000000000000000000000000000000000000000000000000000000000001PES00010000001 6631535275180520160811
12018070701C000100007479000074790018030712311653SILVIA C. BALSAMO Y VERONICA K00000000004500000000000000000000000000003720000000000000780000000000000000000000000000000000000000000000000000000000000000000000000000000000000000000000000000000000001PES00010000001 6631535275180520160811
12018070706C000100034426000344260019600011111111Consumidor final              00000000024300000000000000000000000000020080000000000004220000000000000000000000000000000000000000000000000000000000000000000000000000000000000000000000000000000000005PES00010000001 6631535275180520160811
12018071001C000100007480000074800018030707235914METALURGICA TOR MEC SRL       00000000004400000000000000000000000000003640000000000000760000000000000000000000000000000000000000000000000000000000000000000000000000000000000000000000000000000000001PES00010000001 6631535275180520160811
12018071001C000100007481000074810018030708490209ECOARBE S.R.L.                00000000005200000000000000000000000000004710000000000000490000000000000000000000000000000000000000000000000000000000000000000000000000000000000000000000000000000000001PES00010000001 6631535275180520160811
12018071006C000100034427000344270019600011111111Consumidor final              00000000003400000000000000000000000000003080000000000000320000000000000000000000000000000000000000000000000000000000000000000000000000000000000000000000000000000000005PES00010000001 6631535275180520160811
12018071006C000100034428000344280019600011111111Consumidor final              00000000012500000000000000000000000000010330000000000002170000000000000000000000000000000000000000000000000000000000000000000000000000000000000000000000000000000000005PES00010000001 6631535275180520160811
12018071006C000100034429000344290019600011111111Consumidor final              00000000006700000000000000000000000000006060000000000000640000000000000000000000000000000000000000000000000000000000000000000000000000000000000000000000000000000000005PES00010000001 6631535275180520160811
12018071006C000100034430000344300019600011111111Consumidor final              00000000004500000000000000000000000000003720000000000000780000000000000000000000000000000000000000000000000000000000000000000000000000000000000000000000000000000000005PES00010000001 6631535275180520160811
12018071006C000100034431000344310019600011111111Consumidor final              00000000003600000000000000000000000000002980000000000000620000000000000000000000000000000000000000000000000000000000000000000000000000000000000000000000000000000000005PES00010000001 6631535275180520160811
12018071006C000100034432000344320019600011111111Consumidor final              00000000001500000000000000000000000000001240000000000000260000000000000000000000000000000000000000000000000000000000000000000000000000000000000000000000000000000000005PES00010000001 6631535275180520160811
12018071006C000100034433000344330019600011111111Consumidor final              00000000005000000000000000000000000000004520000000000000480000000000000000000000000000000000000000000000000000000000000000000000000000000000000000000000000000000000005PES00010000001 6631535275180520160811
12018071006C000100034434000344340019600011111111Consumidor final              00000000003400000000000000000000000000003080000000000000320000000000000000000000000000000000000000000000000000000000000000000000000000000000000000000000000000000000005PES00010000001 6631535275180520160811
12018071006C000100034435000344350019600011111111Consumidor final              00000000037900000000000000000000000000034300000000000003600000000000000000000000000000000000000000000000000000000000000000000000000000000000000000000000000000000000005PES00010000001 6631535275180520160811
12018071101C000100007482000074820018033709388679CH PLUS ASESORES DE SEGUROS S.00000000003700000000000000000000000000003060000000000000640000000000000000000000000000000000000000000000000000000000000000000000000000000000000000000000000000000000001PES00010000001 6631535275180520160811
12018071101C000100007483000074830018033709388679CH PLUS ASESORES DE SEGUROS S.00000000009500000000000000000000000000007850000000000001650000000000000000000000000000000000000000000000000000000000000000000000000000000000000000000000000000000000001PES00010000001 6631535275180520160811
12018071101C000100007484000074840018020078375842ACEBEDO, HORACIO NESTOR       00000000005000000000000000000000000000004130000000000000870000000000000000000000000000000000000000000000000000000000000000000000000000000000000000000000000000000000001PES00010000001 6631535275180520160811
12018071101C000100007485000074850018030693441818COMSERT S.R.L.                00000000005000000000000000000000000000004130000000000000870000000000000000000000000000000000000000000000000000000000000000000000000000000000000000000000000000000000001PES00010000001 6631535275180520160811
12018071106C000100034436000344360019600011111111Consumidor final              00000000000800000000000000000000000000000660000000000000140000000000000000000000000000000000000000000000000000000000000000000000000000000000000000000000000000000000005PES00010000001 6631535275180520160811
12018071106C000100034437000344370018030707691693FUNDACION FUNDOSOL            00000000007500000000000000000000000000006200000000000001300000000000000000000000000000000000000000000000000000000000000000000000000000000000000000000000000000000000009PES00010000001 6631535275180520160811
12018071106C000100034438000344380019600011111111Consumidor final              00000000004500000000000000000000000000003720000000000000780000000000000000000000000000000000000000000000000000000000000000000000000000000000000000000000000000000000005PES00010000001 6631535275180520160811
12018071106C000100034439000344390019600011111111Consumidor final              00000000002500000000000000000000000000002260000000000000240000000000000000000000000000000000000000000000000000000000000000000000000000000000000000000000000000000000005PES00010000001 6631535275180520160811
12018071106C000100034440000344400019600011111111Consumidor final              00000000002500000000000000000000000000002260000000000000240000000000000000000000000000000000000000000000000000000000000000000000000000000000000000000000000000000000005PES00010000001 6631535275180520160811
12018071106C000100034441000344410019600011111111Consumidor final              00000000009500000000000000000000000000008600000000000000900000000000000000000000000000000000000000000000000000000000000000000000000000000000000000000000000000000000005PES00010000001 6631535275180520160811
12018071106C000100034442000344420019600011111111Consumidor final              00000000007900000000000000000000000000007150000000000000750000000000000000000000000000000000000000000000000000000000000000000000000000000000000000000000000000000000005PES00010000001 6631535275180520160811
12018071106C000100034443000344430019600011111111Consumidor final              00000000010000000000000000000000000000009050000000000000950000000000000000000000000000000000000000000000000000000000000000000000000000000000000000000000000000000000005PES00010000001 6631535275180520160811
12018071106C000100034444000344440019600011111111Consumidor final              00000000005000000000000000000000000000004520000000000000480000000000000000000000000000000000000000000000000000000000000000000000000000000000000000000000000000000000005PES00010000001 6631535275180520160811
12018071206C000100034445000344450019600011111111Consumidor final              00000000000500000000000000000000000000000410000000000000090000000000000000000000000000000000000000000000000000000000000000000000000000000000000000000000000000000000005PES00010000001 6631535275180520160811
12018071206C000100034446000344460019600011111111Consumidor final              00000000007300000000000000000000000000006610000000000000690000000000000000000000000000000000000000000000000000000000000000000000000000000000000000000000000000000000005PES00010000001 6631535275180520160811
12018071206C000100034447000344470019600011111111Consumidor final              00000000013900000000000000000000000000012580000000000001320000000000000000000000000000000000000000000000000000000000000000000000000000000000000000000000000000000000005PES00010000001 6631535275180520160811
12018071206C000100034448000344480019600011111111Consumidor final              00000000006600000000000000000000000000005450000000000001150000000000000000000000000000000000000000000000000000000000000000000000000000000000000000000000000000000000005PES00010000001 6631535275180520160811
12018071206C000100034449000344490019600011111111Consumidor final              00000000003900000000000000000000000000003220000000000000680000000000000000000000000000000000000000000000000000000000000000000000000000000000000000000000000000000000005PES00010000001 6631535275180520160811
12018071206C000100034450000344500019600011111111Consumidor final              00000000006700000000000000000000000000006060000000000000640000000000000000000000000000000000000000000000000000000000000000000000000000000000000000000000000000000000005PES00010000001 6631535275180520160811
12018071206C000100034451000344510019600011111111Consumidor final              00000000033000000000000000000000000000029860000000000003140000000000000000000000000000000000000000000000000000000000000000000000000000000000000000000000000000000000005PES00010000001 6631535275180520160811
12018071301C000100007486000074860018020106783900BRIE , FELIX MARIA            00000000016900000000000000000000000000015290000000000001610000000000000000000000000000000000000000000000000000000000000000000000000000000000000000000000000000000000001PES00010000001 6631535275180520160811
12018071301C000100007487000074870018030713383100TRASLADO Y PLANEAMIENTO ALMIRA00000000004000000000000000000000000000003310000000000000690000000000000000000000000000000000000000000000000000000000000000000000000000000000000000000000000000000000001PES00010000001 6631535275180520160811
12018071306C000100034452000344520019600011111111Consumidor final              00000000005000000000000000000000000000004520000000000000480000000000000000000000000000000000000000000000000000000000000000000000000000000000000000000000000000000000005PES00010000001 6631535275180520160811
12018071306C000100034453000344530019600011111111Consumidor final              00000000007300000000000000000000000000006610000000000000690000000000000000000000000000000000000000000000000000000000000000000000000000000000000000000000000000000000005PES00010000001 6631535275180520160811
12018071306C000100034454000344540019600011111111Consumidor final              00000000005900000000000000000000000000005340000000000000560000000000000000000000000000000000000000000000000000000000000000000000000000000000000000000000000000000000005PES00010000001 6631535275180520160811
12018071306C000100034455000344550019600011111111Consumidor final              00000000005100000000000000000000000000004620000000000000480000000000000000000000000000000000000000000000000000000000000000000000000000000000000000000000000000000000005PES00010000001 6631535275180520160811
12018071306C000100034456000344560019600011111111Consumidor final              00000000002000000000000000000000000000001810000000000000190000000000000000000000000000000000000000000000000000000000000000000000000000000000000000000000000000000000005PES00010000001 6631535275180520160811
12018071306C000100034457000344570019600011111111Consumidor final              00000000002500000000000000000000000000002260000000000000240000000000000000000000000000000000000000000000000000000000000000000000000000000000000000000000000000000000005PES00010000001 6631535275180520160811
12018071306C000100034457000344570019600011111111Consumidor final              00000000004500000000000000000000000000003720000000000000780000000000000000000000000000000000000000000000000000000000000000000000000000000000000000000000000000000000005PES00010000001 6631535275180520160811
12018071306C000100034458000344580019600011111111Consumidor final              00000000004500000000000000000000000000004070000000000000430000000000000000000000000000000000000000000000000000000000000000000000000000000000000000000000000000000000005PES00010000001 6631535275180520160811
12018071306C000100034459000344590019600011111111Consumidor final              00000000003000000000000000000000000000002480000000000000520000000000000000000000000000000000000000000000000000000000000000000000000000000000000000000000000000000000005PES00010000001 6631535275180520160811
12018071306C000100034460000344600019600011111111Consumidor final              00000000001750000000000000000000000000001450000000000000300000000000000000000000000000000000000000000000000000000000000000000000000000000000000000000000000000000000005PES00010000001 6631535275180520160811
12018071306C000100034461000344610019600011111111Consumidor final              00000000005500000000000000000000000000004550000000000000950000000000000000000000000000000000000000000000000000000000000000000000000000000000000000000000000000000000005PES00010000001 6631535275180520160811
12018071406C000100034462000344620019600011111111Consumidor final              00000000014600000000000000000000000000013210000000000001390000000000000000000000000000000000000000000000000000000000000000000000000000000000000000000000000000000000005PES00010000001 6631535275180520160811
12018071406C000100034462000344620019600011111111Consumidor final              00000000003000000000000000000000000000002480000000000000520000000000000000000000000000000000000000000000000000000000000000000000000000000000000000000000000000000000005PES00010000001 6631535275180520160811
12018071406C000100034463000344630019600011111111Consumidor final              00000000002500000000000000000000000000002070000000000000430000000000000000000000000000000000000000000000000000000000000000000000000000000000000000000000000000000000005PES00010000001 6631535275180520160811
12018071406C000100034464000344640019600011111111Consumidor final              00000000010000000000000000000000000000009050000000000000950000000000000000000000000000000000000000000000000000000000000000000000000000000000000000000000000000000000005PES00010000001 6631535275180520160811
12018071406C000100034465000344650019600011111111Consumidor final              00000000015900000000000000000000000000014390000000000001510000000000000000000000000000000000000000000000000000000000000000000000000000000000000000000000000000000000005PES00010000001 6631535275180520160811
12018071601C000100007488000074880018030711898189SABORES DE ADROGUE S.R.L.     00000000019000000000000000000000000000015700000000000003300000000000000000000000000000000000000000000000000000000000000000000000000000000000000000000000000000000000001PES00010000001 6631535275180520160811
12018071601C000100007489000074890018030711037396SORGOL BIENES SA              00000000012000000000000000000000000000009920000000000002080000000000000000000000000000000000000000000000000000000000000000000000000000000000000000000000000000000000001PES00010000001 6631535275180520160811
12018071601C000100007490000074900018027142805540CUNEO AMANDA BEATRIZ          00000000010200000000000000000000000000009230000000000000970000000000000000000000000000000000000000000000000000000000000000000000000000000000000000000000000000000000001PES00010000001 6631535275180520160811
12018071601C000100007491000074910018027235057331BROZZI CECILIA                00000000011000000000000000000000000000009950000000000001050000000000000000000000000000000000000000000000000000000000000000000000000000000000000000000000000000000000001PES00010000001 6631535275180520160811
12018071606C000100034466000344660019600011111111Consumidor final              00000000003000000000000000000000000000002480000000000000520000000000000000000000000000000000000000000000000000000000000000000000000000000000000000000000000000000000005PES00010000001 6631535275180520160811
12018071606C000100034467000344670019600011111111Consumidor final              00000000003000000000000000000000000000002480000000000000520000000000000000000000000000000000000000000000000000000000000000000000000000000000000000000000000000000000005PES00010000001 6631535275180520160811
12018071606C000100034468000344680019600011111111Consumidor final              00000000003200000000000000000000000000002640000000000000560000000000000000000000000000000000000000000000000000000000000000000000000000000000000000000000000000000000005PES00010000001 6631535275180520160811
12018071606C000100034469000344690019600011111111Consumidor final              00000000007900000000000000000000000000007150000000000000750000000000000000000000000000000000000000000000000000000000000000000000000000000000000000000000000000000000005PES00010000001 6631535275180520160811
12018071606C000100034470000344700019600011111111Consumidor final              00000000001700000000000000000000000000001410000000000000300000000000000000000000000000000000000000000000000000000000000000000000000000000000000000000000000000000000005PES00010000001 6631535275180520160811
12018071606C000100034471000344710019600011111111Consumidor final              00000000012900000000000000000000000000010660000000000002240000000000000000000000000000000000000000000000000000000000000000000000000000000000000000000000000000000000005PES00010000001 6631535275180520160811
12018071606C000100034472000344720019600011111111Consumidor final              00000000005000000000000000000000000000004130000000000000870000000000000000000000000000000000000000000000000000000000000000000000000000000000000000000000000000000000005PES00010000001 6631535275180520160811
12018071606C000100034473000344730019600011111111Consumidor final              00000000003500000000000000000000000000002890000000000000610000000000000000000000000000000000000000000000000000000000000000000000000000000000000000000000000000000000005PES00010000001 6631535275180520160811
12018071606C000100034474000344740019600011111111Consumidor final              00000000002600000000000000000000000000002150000000000000450000000000000000000000000000000000000000000000000000000000000000000000000000000000000000000000000000000000005PES00010000001 6631535275180520160811
12018071606C000100034475000344750019600011111111Consumidor final              00000000021500000000000000000000000000019460000000000002040000000000000000000000000000000000000000000000000000000000000000000000000000000000000000000000000000000000005PES00010000001 6631535275180520160811
12018071606C000100034475000344750019600011111111Consumidor final              00000000015000000000000000000000000000012400000000000002600000000000000000000000000000000000000000000000000000000000000000000000000000000000000000000000000000000000005PES00010000001 6631535275180520160811
12018071606C000100034476000344760019600011111111Consumidor final              00000000004500000000000000000000000000003720000000000000780000000000000000000000000000000000000000000000000000000000000000000000000000000000000000000000000000000000005PES00010000001 6631535275180520160811
12018071608C000100029988000299880019600011111111Consumidor final              -0000000015900000000000000000000000000000000000000000000000000000000000000000000000000000000000000000000000000000000000000000000000000000000000000000000000000000000001PES00010000001 6631535275180520160811
12018071706C000100034477000344770019600011111111Consumidor final              00000000001500000000000000000000000000001240000000000000260000000000000000000000000000000000000000000000000000000000000000000000000000000000000000000000000000000000005PES00010000001 6631535275180520160811
12018071706C000100034478000344780019600011111111Consumidor final              00000000003700000000000000000000000000003060000000000000640000000000000000000000000000000000000000000000000000000000000000000000000000000000000000000000000000000000005PES00010000001 6631535275180520160811
12018071706C000100034479000344790019600011111111Consumidor final              00000000006500000000000000000000000000005880000000000000620000000000000000000000000000000000000000000000000000000000000000000000000000000000000000000000000000000000005PES00010000001 6631535275180520160811
12018071706C000100034480000344800019600011111111Consumidor final              00000000007500000000000000000000000000006200000000000001300000000000000000000000000000000000000000000000000000000000000000000000000000000000000000000000000000000000005PES00010000001 6631535275180520160811
12018071706C000100034481000344810019600011111111Consumidor final              00000000005000000000000000000000000000004520000000000000480000000000000000000000000000000000000000000000000000000000000000000000000000000000000000000000000000000000005PES00010000001 6631535275180520160811
12018071706C000100034482000344820019600011111111Consumidor final              00000000007900000000000000000000000000007150000000000000750000000000000000000000000000000000000000000000000000000000000000000000000000000000000000000000000000000000005PES00010000001 6631535275180520160811
12018071801C000100007492000074920018020276276906RAICES FEDERICO ANDRES        00000000002000000000000000000000000000001810000000000000190000000000000000000000000000000000000000000000000000000000000000000000000000000000000000000000000000000000001PES00010000001 6631535275180520160811
12018071801C000100007493000074930018020215891454PEREYRA GERARDO SILVIO        00000000001700000000000000000000000000001540000000000000160000000000000000000000000000000000000000000000000000000000000000000000000000000000000000000000000000000000001PES00010000001 6631535275180520160811
12018071801C000100007494000074940018020215891454PEREYRA GERARDO SILVIO        00000000001400000000000000000000000000001270000000000000130000000000000000000000000000000000000000000000000000000000000000000000000000000000000000000000000000000000001PES00010000001 6631535275180520160811
12018071801C000100007495000074950018030710990693SOTTOSANTI JIMENA SOLEDAD Y SO00000000004000000000000000000000000000003620000000000000380000000000000000000000000000000000000000000000000000000000000000000000000000000000000000000000000000000000001PES00010000001 6631535275180520160811
12018071801C000100007496000074960018033709388679CH PLUS ASESORES DE SEGUROS S.00000000004800000000000000000000000000004340000000000000460000000000000000000000000000000000000000000000000000000000000000000000000000000000000000000000000000000000001PES00010000001 6631535275180520160811
12018071806C000100034483000344830019600011111111Consumidor final              00000000005000000000000000000000000000004130000000000000870000000000000000000000000000000000000000000000000000000000000000000000000000000000000000000000000000000000005PES00010000001 6631535275180520160811
12018071806C000100034484000344840019600011111111Consumidor final              00000000002000000000000000000000000000001650000000000000350000000000000000000000000000000000000000000000000000000000000000000000000000000000000000000000000000000000005PES00010000001 6631535275180520160811
12018071806C000100034485000344850019600011111111Consumidor final              00000000001500000000000000000000000000001240000000000000260000000000000000000000000000000000000000000000000000000000000000000000000000000000000000000000000000000000005PES00010000001 6631535275180520160811
12018071806C000100034486000344860019600011111111Consumidor final              00000000003500000000000000000000000000002890000000000000610000000000000000000000000000000000000000000000000000000000000000000000000000000000000000000000000000000000005PES00010000001 6631535275180520160811
12018071803C000100006082000060820018020215891454PEREYRA GERARDO SILVIO        -0000000001700000000000000000000000000000000000000000000000000000000000000000000000000000000000000000000000000000000000000000000000000000000000000000000000000000000001PES00010000001 6631535275180520160811
12018071901C000100007497000074970018020244815554LOPEZ FERNANDO ANDRES         00000000005000000000000000000000000000004520000000000000480000000000000000000000000000000000000000000000000000000000000000000000000000000000000000000000000000000000001PES00010000001 6631535275180520160811
12018071901C000100007498000074980018020121762774TIRITILLI MIGUEL ANGEL        00000000006000000000000000000000000000005430000000000000570000000000000000000000000000000000000000000000000000000000000000000000000000000000000000000000000000000000001PES00010000001 6631535275180520160811
12018071901C000100007499000074990018030592154028Rocatti Ruben y Tantardini Lil00000000003700000000000000000000000000003060000000000000640000000000000000000000000000000000000000000000000000000000000000000000000000000000000000000000000000000000001PES00010000001 6631535275180520160811
12018071901C000100007500000075000018030707443878PRODUCTOS ALIMENTICIOS HUESCA 00000000003700000000000000000000000000003060000000000000640000000000000000000000000000000000000000000000000000000000000000000000000000000000000000000000000000000000001PES00010000001 6631535275180520160811
12018071906C000100034487000344870019600011111111Consumidor final              00000000005000000000000000000000000000004520000000000000480000000000000000000000000000000000000000000000000000000000000000000000000000000000000000000000000000000000005PES00010000001 6631535275180520160811
12018071906C000100034488000344880019600011111111Consumidor final              00000000006500000000000000000000000000005880000000000000620000000000000000000000000000000000000000000000000000000000000000000000000000000000000000000000000000000000005PES00010000001 6631535275180520160811
12018071906C000100034489000344890019600011111111Consumidor final              00000000013900000000000000000000000000012580000000000001320000000000000000000000000000000000000000000000000000000000000000000000000000000000000000000000000000000000005PES00010000001 6631535275180520160811
12018071906C000100034490000344900019600011111111Consumidor final              00000000021500000000000000000000000000019460000000000002040000000000000000000000000000000000000000000000000000000000000000000000000000000000000000000000000000000000005PES00010000001 6631535275180520160811
12018071906C000100034491000344910019600011111111Consumidor final              00000000003000000000000000000000000000002710000000000000290000000000000000000000000000000000000000000000000000000000000000000000000000000000000000000000000000000000005PES00010000001 6631535275180520160811
12018071906C000100034491000344910019600011111111Consumidor final              00000000010900000000000000000000000000009010000000000001890000000000000000000000000000000000000000000000000000000000000000000000000000000000000000000000000000000000005PES00010000001 6631535275180520160811
12018071906C000100034492000344920018030676173338CLUB DE PESCA Y CAZA ALTE. BRO00000000006900000000000000000000000000006240000000000000660000000000000000000000000000000000000000000000000000000000000000000000000000000000000000000000000000000000009PES00010000001 6631535275180520160811
12018072001C000100007501000075010018027200706345SOTO , ANDREA                 00000000014600000000000000000000000000013210000000000001390000000000000000000000000000000000000000000000000000000000000000000000000000000000000000000000000000000000001PES00010000001 6631535275180520160811
12018072001C000100007502000075020018020118168403CASTRO, EDGARDO HUBERTO       00000000006700000000000000000000000000006060000000000000640000000000000000000000000000000000000000000000000000000000000000000000000000000000000000000000000000000000001PES00010000001 6631535275180520160811
12018072001C000100007502000075020018020118168403CASTRO, EDGARDO HUBERTO       00000000003400000000000000000000000000002810000000000000590000000000000000000000000000000000000000000000000000000000000000000000000000000000000000000000000000000000001PES00010000001 6631535275180520160811
12018072006C000100034493000344930019600011111111Consumidor final              00000000022000000000000000000000000000019910000000000002090000000000000000000000000000000000000000000000000000000000000000000000000000000000000000000000000000000000005PES00010000001 6631535275180520160811
12018072006C000100034494000344940019600011111111Consumidor final              00000000010400000000000000000000000000009410000000000000990000000000000000000000000000000000000000000000000000000000000000000000000000000000000000000000000000000000005PES00010000001 6631535275180520160811
12018072006C000100034495000344950019600011111111Consumidor final              00000000009000000000000000000000000000007440000000000001560000000000000000000000000000000000000000000000000000000000000000000000000000000000000000000000000000000000005PES00010000001 6631535275180520160811
12018072006C000100034496000344960018030711287406CENTRO INTEGRAL CASA NUEVA SRL00000000015500000000000000000000000000014030000000000001470000000000000000000000000000000000000000000000000000000000000000000000000000000000000000000000000000000000009PES00010000001 6631535275180520160811
12018072006C000100034497000344970019600011111111Consumidor final              00000000003000000000000000000000000000002480000000000000520000000000000000000000000000000000000000000000000000000000000000000000000000000000000000000000000000000000005PES00010000001 6631535275180520160811
12018072006C000100034498000344980019600011111111Consumidor final              00000000021500000000000000000000000000019460000000000002040000000000000000000000000000000000000000000000000000000000000000000000000000000000000000000000000000000000005PES00010000001 6631535275180520160811
12018072006C000100034499000344990019600011111111Consumidor final              00000000023500000000000000000000000000021270000000000002230000000000000000000000000000000000000000000000000000000000000000000000000000000000000000000000000000000000005PES00010000001 6631535275180520160811
12018072006C000100034500000345000019600011111111Consumidor final              00000000009000000000000000000000000000007440000000000001560000000000000000000000000000000000000000000000000000000000000000000000000000000000000000000000000000000000005PES00010000001 6631535275180520160811
12018072106C000100034501000345010019600011111111Consumidor final              00000000012300000000000000000000000000011130000000000001170000000000000000000000000000000000000000000000000000000000000000000000000000000000000000000000000000000000005PES00010000001 6631535275180520160811
12018072106C000100034502000345020019600011111111Consumidor final              00000000003500000000000000000000000000002890000000000000610000000000000000000000000000000000000000000000000000000000000000000000000000000000000000000000000000000000005PES00010000001 6631535275180520160811
12018072106C000100034503000345030019600011111111Consumidor final              00000000001500000000000000000000000000001240000000000000260000000000000000000000000000000000000000000000000000000000000000000000000000000000000000000000000000000000005PES00010000001 6631535275180520160811
12018072106C000100034504000345040019600011111111Consumidor final              00000000008700000000000000000000000000007190000000000001510000000000000000000000000000000000000000000000000000000000000000000000000000000000000000000000000000000000005PES00010000001 6631535275180520160811
12018072301C000100007503000075030018020220171842LEONARDO FARIA               00000000005900000000000000000000000000005340000000000000560000000000000000000000000000000000000000000000000000000000000000000000000000000000000000000000000000000000001PES00010000001 6631535275180520160811
12018072301C000100007503000075030018020220171842LEONARDO FARIA               00000000010000000000000000000000000000008260000000000001740000000000000000000000000000000000000000000000000000000000000000000000000000000000000000000000000000000000001PES00010000001 6631535275180520160811
12018072301C000100007504000075040018020106783900BRIE , FELIX MARIA            00000000003000000000000000000000000000002480000000000000520000000000000000000000000000000000000000000000000000000000000000000000000000000000000000000000000000000000001PES00010000001 6631535275180520160811
12018072301C000100007505000075050018030711898189SABORES DE ADROGUE S.R.L.     00000000016500000000000000000000000000013640000000000002860000000000000000000000000000000000000000000000000000000000000000000000000000000000000000000000000000000000001PES00010000001 6631535275180520160811
12018072306C000100034505000345050019600011111111Consumidor final              00000000001200000000000000000000000000000990000000000000210000000000000000000000000000000000000000000000000000000000000000000000000000000000000000000000000000000000005PES00010000001 6631535275180520160811
12018072306C000100034506000345060019600011111111Consumidor final              00000000000000000000000000000000000000000000000000000000000000000000000000000000000000000000000000000000000000000000000000000000000000000000000000000000000000000000001PES00010000001 6631535275180520160811
12018072306C000100034506000345060019600011111111Consumidor final              00000000000000000000000000000000000000000000000000000000000000000000000000000000000000000000000000000000000000000000000000000000000000000000000000000000000000000000001PES00010000001 6631535275180520160811
12018072306C000100034507000345070019600011111111Consumidor final              00000000000000000000000000000000000000000000000000000000000000000000000000000000000000000000000000000000000000000000000000000000000000000000000000000000000000000000001PES00010000001 6631535275180520160811
12018072306C000100034507000345070019600011111111Consumidor final              00000000000000000000000000000000000000000000000000000000000000000000000000000000000000000000000000000000000000000000000000000000000000000000000000000000000000000000001PES00010000001 6631535275180520160811
12018072306C000100034508000345080019600011111111Consumidor final              00000000003900000000000000000000000000003220000000000000680000000000000000000000000000000000000000000000000000000000000000000000000000000000000000000000000000000000005PES00010000001 6631535275180520160811
12018072306C000100034509000345090019600011111111Consumidor final              00000000016000000000000000000000000000014480000000000001520000000000000000000000000000000000000000000000000000000000000000000000000000000000000000000000000000000000005PES00010000001 6631535275180520160811
12018072306C000100034509000345090019600011111111Consumidor final              00000000003700000000000000000000000000003060000000000000640000000000000000000000000000000000000000000000000000000000000000000000000000000000000000000000000000000000005PES00010000001 6631535275180520160811
12018072306C000100034510000345100019600011111111Consumidor final              00000000014600000000000000000000000000013210000000000001390000000000000000000000000000000000000000000000000000000000000000000000000000000000000000000000000000000000005PES00010000001 6631535275180520160811
12018072306C000100034511000345110019600011111111Consumidor final              00000000029500000000000000000000000000026700000000000002800000000000000000000000000000000000000000000000000000000000000000000000000000000000000000000000000000000000005PES00010000001 6631535275180520160811
12018072306C000100034511000345110019600011111111Consumidor final              00000000008400000000000000000000000000006940000000000001460000000000000000000000000000000000000000000000000000000000000000000000000000000000000000000000000000000000005PES00010000001 6631535275180520160811
12018072306C000100034512000345120019600011111111Consumidor final              00000000004500000000000000000000000000003720000000000000780000000000000000000000000000000000000000000000000000000000000000000000000000000000000000000000000000000000005PES00010000001 6631535275180520160811
12018072306C000100034513000345130019600011111111Consumidor final              00000000002500000000000000000000000000002070000000000000430000000000000000000000000000000000000000000000000000000000000000000000000000000000000000000000000000000000005PES00010000001 6631535275180520160811
12018072306C000100034514000345140019600011111111Consumidor final              00000000006900000000000000000000000000006240000000000000660000000000000000000000000000000000000000000000000000000000000000000000000000000000000000000000000000000000005PES00010000001 6631535275180520160811
12018072306C000100034515000345150019600011111111Consumidor final              00000000004500000000000000000000000000003720000000000000780000000000000000000000000000000000000000000000000000000000000000000000000000000000000000000000000000000000005PES00010000001 6631535275180520160811
12018072306C000100034516000345160019600011111111Consumidor final              00000000010500000000000000000000000000009500000000000001000000000000000000000000000000000000000000000000000000000000000000000000000000000000000000000000000000000000005PES00010000001 6631535275180520160811
12018072401C000100007506000075060018030711898189SABORES DE ADROGUE S.R.L.     00000000007300000000000000000000000000006610000000000000690000000000000000000000000000000000000000000000000000000000000000000000000000000000000000000000000000000000001PES00010000001 6631535275180520160811
12018072401C000100007507000075070018030707567399AKUA S A                      00000000054250000000000000000000000000044830000000000009420000000000000000000000000000000000000000000000000000000000000000000000000000000000000000000000000000000000001PES00010000001 6631535275180520160811
12018072401C000100007508000075080018030520628521FAGUAR S.A.C.I.               00000000006900000000000000000000000000006240000000000000660000000000000000000000000000000000000000000000000000000000000000000000000000000000000000000000000000000000001PES00010000001 6631535275180520160811
12018072401C000100007508000075080018030520628521FAGUAR S.A.C.I.               00000000088450000000000000000000000000073100000000000015350000000000000000000000000000000000000000000000000000000000000000000000000000000000000000000000000000000000001PES00010000001 6631535275180520160811
12018072401C000100007509000075090018030711313237ADROGUE CIOT S.A.             00000000033880000000000000000000000000028000000000000005880000000000000000000000000000000000000000000000000000000000000000000000000000000000000000000000000000000000001PES00010000001 6631535275180520160811
12018072401C000100007510000075100018030707215158GENERAL INK FACTORY S.A.      00000000090390000000000000000000000000074700000000000015690000000000000000000000000000000000000000000000000000000000000000000000000000000000000000000000000000000000001PES00010000001 6631535275180520160811
12018072401C000100007511000075110018030707215158GENERAL INK FACTORY S.A.      00000000004500000000000000000000000000004070000000000000430000000000000000000000000000000000000000000000000000000000000000000000000000000000000000000000000000000000001PES00010000001 6631535275180520160811
12018072401C000100007511000075110018030707215158GENERAL INK FACTORY S.A.      00000000009000000000000000000000000000007440000000000001560000000000000000000000000000000000000000000000000000000000000000000000000000000000000000000000000000000000001PES00010000001 6631535275180520160811
12018072401C000100007512000075120018027263720909ROBILOTTA, LAURA LUCRECIA     00000000033880000000000000000000000000028000000000000005880000000000000000000000000000000000000000000000000000000000000000000000000000000000000000000000000000000000001PES00010000001 6631535275180520160811
12018072401C000100007513000075130018020167769765RODRIGUEZ RODA GABRIEL EDUARDO00000000030250000000000000000000000000025000000000000005250000000000000000000000000000000000000000000000000000000000000000000000000000000000000000000000000000000000001PES00010000001 6631535275180520160811
12018072401C000100007514000075140018020167769765RODRIGUEZ RODA GABRIEL EDUARDO00000000125000000000000000000000000000113120000000000011880000000000000000000000000000000000000000000000000000000000000000000000000000000000000000000000000000000000001PES00010000001 6631535275180520160811
12018072401C000100007515000075150018020167769765RODRIGUEZ RODA GABRIEL EDUARDO00000000062500000000000000000000000000056560000000000005940000000000000000000000000000000000000000000000000000000000000000000000000000000000000000000000000000000000001PES00010000001 6631535275180520160811
12018072401C000100007516000075160018020167769765RODRIGUEZ RODA GABRIEL EDUARDO00000000062500000000000000000000000000056560000000000005940000000000000000000000000000000000000000000000000000000000000000000000000000000000000000000000000000000000001PES00010000001 6631535275180520160811
12018072401C000100007517000075170018030710461747COSMOS ARGENTINA S.R.L.       00000000030250000000000000000000000000025000000000000005250000000000000000000000000000000000000000000000000000000000000000000000000000000000000000000000000000000000001PES00010000001 6631535275180520160811
12018072401C000100007518000075180018030711693277GRUPO METROPOLITANO SEGURIDAD 00000000003000000000000000000000000000002480000000000000520000000000000000000000000000000000000000000000000000000000000000000000000000000000000000000000000000000000001PES00010000001 6631535275180520160811
12018072401C000100007519000075190018020049815663GANORA MICRO , ALFREDO BRUNO  00000000013900000000000000000000000000012580000000000001320000000000000000000000000000000000000000000000000000000000000000000000000000000000000000000000000000000000001PES00010000001 6631535275180520160811
12018072406C000100034517000345170019600011111111Consumidor final              00000000012400000000000000000000000000011220000000000001180000000000000000000000000000000000000000000000000000000000000000000000000000000000000000000000000000000000005PES00010000001 6631535275180520160811
12018072406C000100034518000345180019600011111111Consumidor final              00000000007500000000000000000000000000006200000000000001300000000000000000000000000000000000000000000000000000000000000000000000000000000000000000000000000000000000005PES00010000001 6631535275180520160811
12018072406C000100034519000345190018030709093890M MEDUCAR S A                 00000000021900000000000000000000000000019820000000000002080000000000000000000000000000000000000000000000000000000000000000000000000000000000000000000000000000000000009PES00010000001 6631535275180520160811
12018072406C000100034519000345190018030709093890M MEDUCAR S A                 00000000050200000000000000000000000000041490000000000008710000000000000000000000000000000000000000000000000000000000000000000000000000000000000000000000000000000000009PES00010000001 6631535275180520160811
12018072406C000100034520000345200018030662255390COLEGIO JOSE HERNANDEZ SRL    00000000054450000000000000000000000000045000000000000009450000000000000000000000000000000000000000000000000000000000000000000000000000000000000000000000000000000000009PES00010000001 6631535275180520160811
12018072406C000100034521000345210019600011111111Consumidor final              00000000003000000000000000000000000000002480000000000000520000000000000000000000000000000000000000000000000000000000000000000000000000000000000000000000000000000000005PES00010000001 6631535275180520160811
12018072406C000100034522000345220019600011111111Consumidor final              00000000011000000000000000000000000000009090000000000001910000000000000000000000000000000000000000000000000000000000000000000000000000000000000000000000000000000000005PES00010000001 6631535275180520160811
12018072406C000100034523000345230019600011111111Consumidor final              00000000003300000000000000000000000000002730000000000000570000000000000000000000000000000000000000000000000000000000000000000000000000000000000000000000000000000000005PES00010000001 6631535275180520160811
12018072406C000100034524000345240019600011111111Consumidor final              00000000004800000000000000000000000000004340000000000000460000000000000000000000000000000000000000000000000000000000000000000000000000000000000000000000000000000000005PES00010000001 6631535275180520160811
12018072406C000100034525000345250019600011111111Consumidor final              00000000013600000000000000000000000000012310000000000001290000000000000000000000000000000000000000000000000000000000000000000000000000000000000000000000000000000000005PES00010000001 6631535275180520160811
12018072406C000100034526000345260019600011111111Consumidor final              00000000003500000000000000000000000000002890000000000000610000000000000000000000000000000000000000000000000000000000000000000000000000000000000000000000000000000000005PES00010000001 6631535275180520160811
12018072406C000100034527000345270019600011111111Consumidor final              00000000003000000000000000000000000000002480000000000000520000000000000000000000000000000000000000000000000000000000000000000000000000000000000000000000000000000000005PES00010000001 6631535275180520160811
12018072406C000100034528000345280019600011111111Consumidor final              00000000009500000000000000000000000000008600000000000000900000000000000000000000000000000000000000000000000000000000000000000000000000000000000000000000000000000000005PES00010000001 6631535275180520160811
12018072406C000100034528000345280019600011111111Consumidor final              00000000000500000000000000000000000000000410000000000000090000000000000000000000000000000000000000000000000000000000000000000000000000000000000000000000000000000000005PES00010000001 6631535275180520160811
12018072406C000100034529000345290019600011111111Consumidor final              00000000003500000000000000000000000000002890000000000000610000000000000000000000000000000000000000000000000000000000000000000000000000000000000000000000000000000000005PES00010000001 6631535275180520160811
12018072406C000100034530000345300019600011111111Consumidor final              00000000001500000000000000000000000000001240000000000000260000000000000000000000000000000000000000000000000000000000000000000000000000000000000000000000000000000000005PES00010000001 6631535275180520160811
12018072403C000100006083000060830018020167769765RODRIGUEZ RODA GABRIEL EDUARDO-0000000125000000000000000000000000000000000000000000000000000000000000000000000000000000000000000000000000000000000000000000000000000000000000000000000000000000000001PES00010000001 6631535275180520160811
12018072501C000100007520000075200018030710727577TRINIDAD CONSTRUCCIONES S.R.L.00000000007000000000000000000000000000006340000000000000670000000000000000000000000000000000000000000000000000000000000000000000000000000000000000000000000000000000001PES00010000001 6631535275180520160811
12018072501C000100007521000075210018023161774774SZMYR PATRICIA MIRIAM         00000000006000000000000000000000000000005430000000000000570000000000000000000000000000000000000000000000000000000000000000000000000000000000000000000000000000000000001PES00010000001 6631535275180520160811
12018072501C000100007522000075220018020113159651MOSER JOSE GUILLERMO          00000000008800000000000000000000000000007960000000000000840000000000000000000000000000000000000000000000000000000000000000000000000000000000000000000000000000000000001PES00010000001 6631535275180520160811
12018072501C000100007523000075230018020200628102GALLI LUIS JAVIER             00000000005900000000000000000000000000004880000000000001020000000000000000000000000000000000000000000000000000000000000000000000000000000000000000000000000000000000001PES00010000001 6631535275180520160811
12018072501C000100007524000075240018020200628102GALLI LUIS JAVIER             00000000022000000000000000000000000000019910000000000002090000000000000000000000000000000000000000000000000000000000000000000000000000000000000000000000000000000000001PES00010000001 6631535275180520160811
12018072501C000100007524000075240018020200628102GALLI LUIS JAVIER             00000000008600000000000000000000000000007110000000000001490000000000000000000000000000000000000000000000000000000000000000000000000000000000000000000000000000000000001PES00010000001 6631535275180520160811
12018072506C000100034531000345310019600011111111Consumidor final              00000000026900000000000000000000000000022230000000000004670000000000000000000000000000000000000000000000000000000000000000000000000000000000000000000000000000000000005PES00010000001 6631535275180520160811
12018072506C000100034532000345320019600011111111Consumidor final              00000000003700000000000000000000000000003060000000000000640000000000000000000000000000000000000000000000000000000000000000000000000000000000000000000000000000000000005PES00010000001 6631535275180520160811
12018072506C000100034533000345330019600011111111Consumidor final              00000000010900000000000000000000000000009010000000000001890000000000000000000000000000000000000000000000000000000000000000000000000000000000000000000000000000000000005PES00010000001 6631535275180520160811
12018072506C000100034534000345340019600011111111Consumidor final              00000000008500000000000000000000000000007690000000000000810000000000000000000000000000000000000000000000000000000000000000000000000000000000000000000000000000000000005PES00010000001 6631535275180520160811
12018072506C000100034534000345340019600011111111Consumidor final              00000000003700000000000000000000000000003060000000000000640000000000000000000000000000000000000000000000000000000000000000000000000000000000000000000000000000000000005PES00010000001 6631535275180520160811
12018072506C000100034535000345350019600011111111Consumidor final              00000000006700000000000000000000000000006060000000000000640000000000000000000000000000000000000000000000000000000000000000000000000000000000000000000000000000000000005PES00010000001 6631535275180520160811
12018072601C000100007525000075250018020216040393ROSENDE,  FERNANDO ADRIAN     00000000007500000000000000000000000000006200000000000001300000000000000000000000000000000000000000000000000000000000000000000000000000000000000000000000000000000000001PES00010000001 6631535275180520160811
12018072601C000100007526000075260018030712307745VYAM GROUP SRL                00000000005000000000000000000000000000004130000000000000870000000000000000000000000000000000000000000000000000000000000000000000000000000000000000000000000000000000001PES00010000001 6631535275180520160811
12018072601C000100007527000075270018020309120540BUCETA SEBASTIAN WALTER       00000000006700000000000000000000000000006060000000000000640000000000000000000000000000000000000000000000000000000000000000000000000000000000000000000000000000000000001PES00010000001 6631535275180520160811
12018072606C000100034536000345360019600011111111Consumidor final              00000000009900000000000000000000000000008180000000000001720000000000000000000000000000000000000000000000000000000000000000000000000000000000000000000000000000000000005PES00010000001 6631535275180520160811
12018072606C000100034537000345370019600011111111Consumidor final              00000000008000000000000000000000000000007240000000000000760000000000000000000000000000000000000000000000000000000000000000000000000000000000000000000000000000000000005PES00010000001 6631535275180520160811
12018072606C000100034538000345380019600011111111Consumidor final              00000000006900000000000000000000000000005700000000000001200000000000000000000000000000000000000000000000000000000000000000000000000000000000000000000000000000000000005PES00010000001 6631535275180520160811
12018072606C000100034539000345390019600011111111Consumidor final              00000000003500000000000000000000000000002890000000000000610000000000000000000000000000000000000000000000000000000000000000000000000000000000000000000000000000000000005PES00010000001 6631535275180520160811
12018072606C000100034540000345400019600011111111Consumidor final              00000000047800000000000000000000000000043260000000000004540000000000000000000000000000000000000000000000000000000000000000000000000000000000000000000000000000000000005PES00010000001 6631535275180520160811
12018072606C000100034541000345410018030527485815CAMARA DEL COMERCIO E INDUSTRI00000000004500000000000000000000000000003720000000000000780000000000000000000000000000000000000000000000000000000000000000000000000000000000000000000000000000000000009PES00010000001 6631535275180520160811
12018072606C000100034542000345420019600011111111Consumidor final              00000000003700000000000000000000000000003060000000000000640000000000000000000000000000000000000000000000000000000000000000000000000000000000000000000000000000000000005PES00010000001 6631535275180520160811
12018072606C000100034543000345430019600011111111Consumidor final              00000000001800000000000000000000000000001490000000000000310000000000000000000000000000000000000000000000000000000000000000000000000000000000000000000000000000000000005PES00010000001 6631535275180520160811
12018072606C000100034544000345440019600011111111Consumidor final              00000000003500000000000000000000000000002890000000000000610000000000000000000000000000000000000000000000000000000000000000000000000000000000000000000000000000000000005PES00010000001 6631535275180520160811
12018072606C000100034545000345450019600011111111Consumidor final              00000000004950000000000000000000000000004090000000000000860000000000000000000000000000000000000000000000000000000000000000000000000000000000000000000000000000000000005PES00010000001 6631535275180520160811
12018072606C000100034546000345460019600011111111Consumidor final              00000000010400000000000000000000000000009410000000000000990000000000000000000000000000000000000000000000000000000000000000000000000000000000000000000000000000000000005PES00010000001 6631535275180520160811
12018072606C000100034547000345470019600011111111Consumidor final              00000000006500000000000000000000000000005880000000000000620000000000000000000000000000000000000000000000000000000000000000000000000000000000000000000000000000000000005PES00010000001 6631535275180520160811
12018072606C000100034548000345480019600011111111Consumidor final              00000000018500000000000000000000000000016740000000000001760000000000000000000000000000000000000000000000000000000000000000000000000000000000000000000000000000000000005PES00010000001 6631535275180520160811
12018072606C000100034549000345490019600011111111Consumidor final              00000000006700000000000000000000000000006060000000000000640000000000000000000000000000000000000000000000000000000000000000000000000000000000000000000000000000000000005PES00010000001 6631535275180520160811
12018072606C000100034550000345500019600011111111Consumidor final              00000000006300000000000000000000000000005210000000000001090000000000000000000000000000000000000000000000000000000000000000000000000000000000000000000000000000000000005PES00010000001 6631535275180520160811
12018072606C000100034551000345510019600011111111Consumidor final              00000000010000000000000000000000000000008260000000000001740000000000000000000000000000000000000000000000000000000000000000000000000000000000000000000000000000000000005PES00010000001 6631535275180520160811
12018072706C000100034552000345520019600011111111Consumidor final              00000000002500000000000000000000000000002070000000000000430000000000000000000000000000000000000000000000000000000000000000000000000000000000000000000000000000000000005PES00010000001 6631535275180520160811
12018072706C000100034553000345530019600011111111Consumidor final              00000000007000000000000000000000000000006330000000000000670000000000000000000000000000000000000000000000000000000000000000000000000000000000000000000000000000000000005PES00010000001 6631535275180520160811
12018072706C000100034554000345540019600011111111Consumidor final              00000000002000000000000000000000000000001810000000000000190000000000000000000000000000000000000000000000000000000000000000000000000000000000000000000000000000000000005PES00010000001 6631535275180520160811
12018072706C000100034554000345540019600011111111Consumidor final              00000000004500000000000000000000000000003720000000000000780000000000000000000000000000000000000000000000000000000000000000000000000000000000000000000000000000000000005PES00010000001 6631535275180520160811
12018072706C000100034555000345550019600011111111Consumidor final              00000000002000000000000000000000000000001810000000000000190000000000000000000000000000000000000000000000000000000000000000000000000000000000000000000000000000000000005PES00010000001 6631535275180520160811
12018072706C000100034556000345560019600011111111Consumidor final              00000000003700000000000000000000000000003060000000000000640000000000000000000000000000000000000000000000000000000000000000000000000000000000000000000000000000000000005PES00010000001 6631535275180520160811
12018072706C000100034557000345570019600011111111Consumidor final              00000000002000000000000000000000000000001810000000000000190000000000000000000000000000000000000000000000000000000000000000000000000000000000000000000000000000000000005PES00010000001 6631535275180520160811
12018072706C000100034558000345580019600011111111Consumidor final              00000000010000000000000000000000000000008260000000000001740000000000000000000000000000000000000000000000000000000000000000000000000000000000000000000000000000000000005PES00010000001 6631535275180520160811
12018072706C000100034559000345590019600011111111Consumidor final              00000000006700000000000000000000000000006060000000000000640000000000000000000000000000000000000000000000000000000000000000000000000000000000000000000000000000000000005PES00010000001 6631535275180520160811
12018072706C000100034560000345600019600011111111Consumidor final              00000000001800000000000000000000000000001490000000000000310000000000000000000000000000000000000000000000000000000000000000000000000000000000000000000000000000000000005PES00010000001 6631535275180520160811
12018072801C000100007528000075280018033709388679CH PLUS ASESORES DE SEGUROS S.00000000006000000000000000000000000000004960000000000001040000000000000000000000000000000000000000000000000000000000000000000000000000000000000000000000000000000000001PES00010000001 6631535275180520160811
12018072801C000100007529000075290018033709388679CH PLUS ASESORES DE SEGUROS S.00000000002000000000000000000000000000001650000000000000350000000000000000000000000000000000000000000000000000000000000000000000000000000000000000000000000000000000001PES00010000001 6631535275180520160811
12018072806C000100034561000345610019600011111111Consumidor final              00000000000500000000000000000000000000000410000000000000090000000000000000000000000000000000000000000000000000000000000000000000000000000000000000000000000000000000005PES00010000001 6631535275180520160811
12018072806C000100034562000345620019600011111111Consumidor final              00000000000800000000000000000000000000000660000000000000140000000000000000000000000000000000000000000000000000000000000000000000000000000000000000000000000000000000005PES00010000001 6631535275180520160811
12018072806C000100034563000345630019600011111111Consumidor final              00000000005300000000000000000000000000004800000000000000500000000000000000000000000000000000000000000000000000000000000000000000000000000000000000000000000000000000005PES00010000001 6631535275180520160811
12018072806C000100034563000345630019600011111111Consumidor final              00000000003700000000000000000000000000003060000000000000640000000000000000000000000000000000000000000000000000000000000000000000000000000000000000000000000000000000005PES00010000001 6631535275180520160811
12018072806C000100034564000345640019600011111111Consumidor final              00000000005900000000000000000000000000005340000000000000560000000000000000000000000000000000000000000000000000000000000000000000000000000000000000000000000000000000005PES00010000001 6631535275180520160811
12018072806C000100034564000345640019600011111111Consumidor final              00000000009900000000000000000000000000008180000000000001720000000000000000000000000000000000000000000000000000000000000000000000000000000000000000000000000000000000005PES00010000001 6631535275180520160811
12018072806C000100034565000345650019600011111111Consumidor final              00000000026000000000000000000000000000023530000000000002470000000000000000000000000000000000000000000000000000000000000000000000000000000000000000000000000000000000005PES00010000001 6631535275180520160811
12018072806C000100034565000345650019600011111111Consumidor final              00000000006700000000000000000000000000005540000000000001160000000000000000000000000000000000000000000000000000000000000000000000000000000000000000000000000000000000005PES00010000001 6631535275180520160811
12018072806C000100034566000345660019600011111111Consumidor final              00000000018900000000000000000000000000015620000000000003280000000000000000000000000000000000000000000000000000000000000000000000000000000000000000000000000000000000005PES00010000001 6631535275180520160811
12018072808C000100029989000299890019600011111111Consumidor final              -0000000000500000000000000000000000000000000000000000000000000000000000000000000000000000000000000000000000000000000000000000000000000000000000000000000000000000000001PES00010000001 6631535275180520160811
12018072808C000100029990000299900019600011111111Consumidor final              -0000000002300000000000000000000000000000000000000000000000000000000000000000000000000000000000000000000000000000000000000000000000000000000000000000000000000000000001PES00010000001 6631535275180520160811
12018073001C000100007530000075300018023116139049GONZALEZ OSCAR RAUL           00000000011000000000000000000000000000009950000000000001050000000000000000000000000000000000000000000000000000000000000000000000000000000000000000000000000000000000001PES00010000001 6631535275180520160811
12018073001C000100007531000075310018020231834533GUERCI GUSTAVO                00000000004200000000000000000000000000003800000000000000400000000000000000000000000000000000000000000000000000000000000000000000000000000000000000000000000000000000001PES00010000001 6631535275180520160811
12018073001C000100007532000075320018020076620874Canale Guillermo              00000000007500000000000000000000000000006200000000000001300000000000000000000000000000000000000000000000000000000000000000000000000000000000000000000000000000000000001PES00010000001 6631535275180520160811
12018073001C000100007533000075330018030690195336CAMOZZI NEUMATICA S A         00000000008000000000000000000000000000007240000000000000760000000000000000000000000000000000000000000000000000000000000000000000000000000000000000000000000000000000001PES00010000001 6631535275180520160811
12018073001C000100007533000075330018030690195336CAMOZZI NEUMATICA S A         00000000001900000000000000000000000000001570000000000000330000000000000000000000000000000000000000000000000000000000000000000000000000000000000000000000000000000000001PES00010000001 6631535275180520160811
12018073006C000100034567000345670019600011111111Consumidor final              00000000006000000000000000000000000000005430000000000000570000000000000000000000000000000000000000000000000000000000000000000000000000000000000000000000000000000000005PES00010000001 6631535275180520160811
12018073006C000100034568000345680019600011111111Consumidor final              00000000006000000000000000000000000000005430000000000000570000000000000000000000000000000000000000000000000000000000000000000000000000000000000000000000000000000000005PES00010000001 6631535275180520160811
12018073006C000100034569000345690018033537963749ASOCIACION LAICAL FRATERNA ALM00000000007500000000000000000000000000006200000000000001300000000000000000000000000000000000000000000000000000000000000000000000000000000000000000000000000000000000009PES00010000001 6631535275180520160811
12018073006C000100034570000345700019600011111111Consumidor final              00000000005000000000000000000000000000004520000000000000480000000000000000000000000000000000000000000000000000000000000000000000000000000000000000000000000000000000005PES00010000001 6631535275180520160811
12018073006C000100034571000345710019600011111111Consumidor final              00000000005500000000000000000000000000004550000000000000950000000000000000000000000000000000000000000000000000000000000000000000000000000000000000000000000000000000005PES00010000001 6631535275180520160811
12018073006C000100034572000345720019600011111111Consumidor final              00000000003500000000000000000000000000002890000000000000610000000000000000000000000000000000000000000000000000000000000000000000000000000000000000000000000000000000005PES00010000001 6631535275180520160811
12018073006C000100034573000345730019600011111111Consumidor final              00000000008500000000000000000000000000007020000000000001480000000000000000000000000000000000000000000000000000000000000000000000000000000000000000000000000000000000005PES00010000001 6631535275180520160811
12018073006C000100034574000345740019600011111111Consumidor final              00000000003000000000000000000000000000002480000000000000520000000000000000000000000000000000000000000000000000000000000000000000000000000000000000000000000000000000005PES00010000001 6631535275180520160811
12018073006C000100034575000345750019600011111111Consumidor final              00000000010000000000000000000000000000009050000000000000950000000000000000000000000000000000000000000000000000000000000000000000000000000000000000000000000000000000005PES00010000001 6631535275180520160811
12018073006C000100034576000345760019600011111111Consumidor final              00000000010000000000000000000000000000008260000000000001740000000000000000000000000000000000000000000000000000000000000000000000000000000000000000000000000000000000005PES00010000001 6631535275180520160811
12018073006C000100034577000345770019600011111111Consumidor final              00000000001800000000000000000000000000001490000000000000310000000000000000000000000000000000000000000000000000000000000000000000000000000000000000000000000000000000005PES00010000001 6631535275180520160811
12018073006C000100034578000345780019600011111111Consumidor final              00000000001400000000000000000000000000001270000000000000130000000000000000000000000000000000000000000000000000000000000000000000000000000000000000000000000000000000005PES00010000001 6631535275180520160811
12018073006C000100034579000345790019600011111111Consumidor final              00000000002000000000000000000000000000001810000000000000190000000000000000000000000000000000000000000000000000000000000000000000000000000000000000000000000000000000005PES00010000001 6631535275180520160811
12018073006C000100034580000345800019600011111111Consumidor final              00000000005900000000000000000000000000004880000000000001020000000000000000000000000000000000000000000000000000000000000000000000000000000000000000000000000000000000005PES00010000001 6631535275180520160811
12018073006C000100034581000345810019600011111111Consumidor final              00000000004200000000000000000000000000003800000000000000400000000000000000000000000000000000000000000000000000000000000000000000000000000000000000000000000000000000005PES00010000001 6631535275180520160811
12018073006C000100034582000345820019600011111111Consumidor final              00000000001500000000000000000000000000001240000000000000260000000000000000000000000000000000000000000000000000000000000000000000000000000000000000000000000000000000005PES00010000001 6631535275180520160811
12018073006C000100034583000345830019600011111111Consumidor final              00000000008800000000000000000000000000007960000000000000840000000000000000000000000000000000000000000000000000000000000000000000000000000000000000000000000000000000005PES00010000001 6631535275180520160811
12018073006C000100034583000345830019600011111111Consumidor final              00000000001700000000000000000000000000001410000000000000300000000000000000000000000000000000000000000000000000000000000000000000000000000000000000000000000000000000005PES00010000001 6631535275180520160811
12018073006C000100034584000345840019600011111111Consumidor final              00000000018900000000000000000000000000017100000000000001800000000000000000000000000000000000000000000000000000000000000000000000000000000000000000000000000000000000005PES00010000001 6631535275180520160811
12018073006C000100034584000345840019600011111111Consumidor final              00000000003800000000000000000000000000003140000000000000660000000000000000000000000000000000000000000000000000000000000000000000000000000000000000000000000000000000005PES00010000001 6631535275180520160811
12018073101C000100007534000075340018030710530919GAZDAROSSI S.R.L.             00000000000600000000000000000000000000000500000000000000100000000000000000000000000000000000000000000000000000000000000000000000000000000000000000000000000000000000001PES00010000001 6631535275180520160811
12018073101C000100007535000075350018023316795579SMILJAN , LEANDRO MARTIN      00000000019500000000000000000000000000017650000000000001850000000000000000000000000000000000000000000000000000000000000000000000000000000000000000000000000000000000001PES00010000001 6631535275180520160811
12018073101C000100007536000075360018020227187760BEVERAGGI, JUAN MANUEL        00000000014600000000000000000000000000013210000000000001390000000000000000000000000000000000000000000000000000000000000000000000000000000000000000000000000000000000001PES00010000001 6631535275180520160811
12018073101C000100007536000075360018020227187760BEVERAGGI, JUAN MANUEL        00000000013800000000000000000000000000011410000000000002400000000000000000000000000000000000000000000000000000000000000000000000000000000000000000000000000000000000001PES00010000001 6631535275180520160811
12018073101C000100007537000075370018030547592553IRISO SOCIEDAD EN COMANDITA PO00000000009000000000000000000000000000007440000000000001560000000000000000000000000000000000000000000000000000000000000000000000000000000000000000000000000000000000001PES00010000001 6631535275180520160811
12018073101C000100007538000075380018030710797133CALVETTI GABRIEL IGNACIO Y CAL00000000007500000000000000000000000000006790000000000000710000000000000000000000000000000000000000000000000000000000000000000000000000000000000000000000000000000000001PES00010000001 6631535275180520160811
12018073101C000100007539000075390018020229131150CORINO HERNAN RICARDO         00000000007300000000000000000000000000006610000000000000690000000000000000000000000000000000000000000000000000000000000000000000000000000000000000000000000000000000001PES00010000001 6631535275180520160811
12018073101C000100007539000075390018020229131150CORINO HERNAN RICARDO         00000000003700000000000000000000000000003060000000000000640000000000000000000000000000000000000000000000000000000000000000000000000000000000000000000000000000000000001PES00010000001 6631535275180520160811
12018073106C000100034585000345850019600011111111Consumidor final              00000000009900000000000000000000000000008180000000000001720000000000000000000000000000000000000000000000000000000000000000000000000000000000000000000000000000000000005PES00010000001 6631535275180520160811
12018073106C000100034586000345860019600011111111Consumidor final              00000000007500000000000000000000000000006200000000000001300000000000000000000000000000000000000000000000000000000000000000000000000000000000000000000000000000000000005PES00010000001 6631535275180520160811
12018073106C000100034587000345870019600011111111Consumidor final              00000000007500000000000000000000000000006200000000000001300000000000000000000000000000000000000000000000000000000000000000000000000000000000000000000000000000000000005PES00010000001 6631535275180520160811
12018073106C000100034588000345880019600011111111Consumidor final              00000000010900000000000000000000000000009010000000000001890000000000000000000000000000000000000000000000000000000000000000000000000000000000000000000000000000000000005PES00010000001 6631535275180520160811
12018073106C000100034589000345890019600011111111Consumidor final              00000000004500000000000000000000000000004070000000000000430000000000000000000000000000000000000000000000000000000000000000000000000000000000000000000000000000000000005PES00010000001 6631535275180520160811
12018073106C000100034590000345900019600011111111Consumidor final              00000000003000000000000000000000000000002480000000000000520000000000000000000000000000000000000000000000000000000000000000000000000000000000000000000000000000000000005PES00010000001 6631535275180520160811
12018073106C000100034591000345910019600011111111Consumidor final              00000000013900000000000000000000000000012580000000000001320000000000000000000000000000000000000000000000000000000000000000000000000000000000000000000000000000000000005PES00010000001 6631535275180520160811
12018073106C000100034592000345920019600011111111Consumidor final              00000000004500000000000000000000000000003720000000000000780000000000000000000000000000000000000000000000000000000000000000000000000000000000000000000000000000000000005PES00010000001 6631535275180520160811
